:020000040800F2
:1000000000500020C5010008C9010008CB0100080C
:10001000E1010008E3010008F90100080000000008
:100020000000000000000000000000000F020008B7
:100030001102000800000000130200083D0400083F
:1000400029020008290200082902000829020008E4
:100050002902000829020008ED050008290200080D
:1000600029020008290200082902000829020008C4
:1000700029020008290200082902000829020008B4
:1000800029020008290200082902000829020008A4
:100090002902000829020008290200082902000894
:1000A0002902000829020008290200082902000884
:1000B0002902000829020008290200082902000874
:1000C0002902000829020008290200082902000864
:1000D0002902000829020008290200082902000854
:1000E0002902000829020008290200080000000077
:1000F0000000000000000000000000000000000000
:1001000000000000000000005FF808F107B500F0F3
:10011000ADF8214A214B22498B4226D30021214BA5
:10012000214A934226D300F0ADF801A9684600F0B9
:1001300095F800251D4E1E4CA41BA410AC421CDCDF
:1001400000251C4E1C4CA41BA410AC421ADCDDE99B
:10015000000100F0CDFA0646184D194C641BA4109E
:10016000002C14DC304600F075F852F8040F43F808
:10017000040BD1E743F8041BD3E756F82530984722
:100180000135DBE756F8253098470135DDE7013CBE
:1001900055F824309847E3E74C070008000000209A
:1001A0001C0000201C000020F00000205402000869
:1001B00054020008540200085402000854020008C7
:1001C0005402000814480047FEE71EF0040F0CBF5D
:1001D000EFF30880EFF309807146104A1047FEE7FD
:1001E000FEE71EF0040F0CBFEFF30880EFF3098069
:1001F00071460B4A1047FEE71EF0040F0CBFEFF3E9
:100200000880EFF309807146064A1047FEE7FEE7D3
:10021000FEE7FEE7704700000D010008DF0100085F
:0A022000F70100080D020008FEE7D8
:10022C0050070008000000201C00002050070008A8
:10023C0000000000000000001C000020F000002066
:08024C000000000000000000AA
:1002540008B500F017F8000001230360014B0B60A0
:10026400704700BF0000002008B500F01DF8024AE6
:10027400024B9A6008BD00BF0000000800ED00E0DA
:1002840000F08AB8BFF34F8F0549064BCA6802F4E1
:10029400E0621343CB60BFF34F8F00BFFDE700BFA5
:1002A40000ED00E00400FA05374B82B01A6842F012
:1002B40001021A605968354A0A405A601A6822F0E5
:1002C400847222F480321A601A6822F480221A603E
:1002D4005A6822F4FE025A604FF41F029A60002208
:1002E400009201921A6842F480321A601A6802F489
:1002F40000320192009A01320092019A1AB9009ACE
:10030400B2F5A06FF2D11A6812F4003218BF0122BC
:100314000192019A012A30D11D4A116841F010015D
:100324001160116821F003011160116841F00201AC
:1003340011605A685A605A685A605A6842F4806276
:100344005A605A6822F47C125A605A6842F4E812DD
:100354005A601A6842F080721A601A689201FCD5D9
:100364005A6822F003025A605A6842F002025A6044
:100374005A6802F00C02082AFAD14FF00062054BC9
:100384009A6002B0704700BF001002400000FFF8FE
:100394000020024000ED00E0104B11495A6802F0C1
:1003A4000C02082A0AD00F4A0A605B680E4AC3F39B
:1003B4000313D25C0B68D3400B6070475A685868CB
:1003C400C2F38342C00302F1020202D4074842434B
:1003D400EAE758688003F9D40248F8E700100240BD
:1003E4001800002000127A000800002000093D00D7
:1003F400024A136843F002031360704710E000E000
:100404000122064B1A700022054B1960054B9A60B5
:1004140058601A6842F001021A60704724000020F4
:100424002000002010E000E0024B58689B68C01ACE
:10043400704700BF10E000E008B5074B1B6803B12C
:100444009847064B1B78012B01BF054A136823F01C
:100454000103136008BD00BF200000202400002019
:1004640010E000E0044B1A6842F480321A605A68C3
:1004740001225A60704700BF0010024001280AD0D0
:1004840002D302280DD070470120094B88405A69D5
:10049400104358617047064B8840DA691043D861AD
:1004A40070470120024B88409A6910439861704755
:1004B400001002400123420900F01F0003FA00F07B
:1004C400014B43F82200704700E100E0072910B512
:1004D40015D801280FD002D302280ED010BD1D4814
:1004E4000F23046889008B4024EA030402FA01F113
:1004F40021430160F2E71848F2E71848F0E70128C1
:100504001AD00CD30228E9D10F20144C08398900E1
:100514006368884023EA000302FA01F10AE0A1F1CA
:1005240008000F210B4C80006368814023EA01031B
:1005340002FA00F119430BE0A1F108030F21064C64
:100544009B006068994020EA010002FA03F101432C
:100554006160C3E700080140000C01400010014045
:10056400012807D002D302280AD07047054BDA6865
:10057400012001E0044BDA6888405040D86070479D
:10058400024BF4E700080140000C01400010014058
:100594000122114B10B51C6802FA01F10C43022828
:1005A4001C600BD0032811D0904206D19A680A43EC
:1005B4009A60DA6822EA0101D96010BDDA680A4358
:1005C400DA609A6822EA01019960F6E7DA680A4378
:1005D400DA609A681143F7E700040140014B43F8DD
:1005E400201070472800002008B5054B1B6803B194
:1005F4009847044A536943F00103536108BD00BF9F
:10060400280000200004014038B50E4A13783BB995
:10061400012313700C490D48BDE83840FFF7F0BEC4
:10062400012B0DD10A4C2578FFF7FEFE094B064934
:1006340043F825000548FFF7E3FE237801332370D0
:1006440038BD00BFEE0000208D060008905F010059
:10065400EC000020680000200A4B1A78182A08D001
:100664005E2A0AD00C2A0CD1002001211870FFF751
:1006740077BF002002211870F9E7002003211870C9
:10068400F5E77047ED0000200022F0B4144601267F
:100694001249134D0B7855F8040FA0F57A77C82F3B
:1006A40011D806FA02F023EA000301240132082AD1
:1006B400F1D104B10B7000230A4A13700A4A137073
:1006C400F0BCFFF7C9BFA0F5FA60B0F5967FEDD88E
:1006D40006FA02F00343DBB2E7E700BFED000020B7
:1006E400A8000020EE000020EC00002008B5FFF771
:1006F400B9FEFFF77DFE02210846FFF7BFFE002189
:100704000220FFF7BBFE002104220846FFF7DEFEAD
:10071400012200201146FFF7D9FE01220221002008
:10072400FFF7D4FE012203210020FFF7CFFE064984
:100734000020FFF753FF02200021FFF729FF0620C6
:0C074400FFF7B8FEFEE700BF0D0600083E
:100750001C0000200000000000000000000000005D
:0C076000010203040607080900A24A0475
:040000050800010DE1
:00000001FF
