:020000040800F2
:1000000000500020C5010008C9010008CB0100080C
:10001000E1010008E3010008F90100080000000008
:100020000000000000000000000000000F020008B7
:10003000110200080000000013020008A9040008D3
:1000400029020008290200082902000829020008E4
:100050002902000829020008E90500082902000811
:1000600029020008290200082902000829020008C4
:1000700029020008290200082902000829020008B4
:1000800029020008290200082902000829020008A4
:100090002902000829020008290200082902000894
:1000A0002902000829020008290200082902000884
:1000B0002902000829020008290200082902000874
:1000C0002902000829020008290200082902000864
:1000D0002902000829020008290200082902000854
:1000E0002902000829020008290200080000000077
:1000F0000000000000000000000000000000000000
:1001000000000000000000005FF808F107B500F0F3
:10011000ADF8214A214B22498B4226D30021214BA5
:10012000214A934226D300F0ADF801A9684600F0B9
:1001300095F800251D4E1E4CA41BA410AC421CDCDF
:1001400000251C4E1C4CA41BA410AC421ADCDDE99B
:10015000000100F079FA0646184D194C641BA410F2
:10016000002C14DC304600F075F852F8040F43F808
:10017000040BD1E743F8041BD3E756F82530984722
:100180000135DBE756F8253098470135DDE7013CBE
:1001900055F824309847E3E7F006000800000020F7
:1001A0001C0000201C000020C40000205402000895
:1001B00054020008540200085402000854020008C7
:1001C0005402000814480047FEE71EF0040F0CBF5D
:1001D000EFF30880EFF309807146104A1047FEE7FD
:1001E000FEE71EF0040F0CBFEFF30880EFF3098069
:1001F00071460B4A1047FEE71EF0040F0CBFEFF3E9
:100200000880EFF309807146064A1047FEE7FEE7D3
:10021000FEE7FEE7704700000D010008DF0100085F
:0A022000F70100080D020008FEE7D8
:10022C00F4060008000000201C000020F406000862
:10023C0000000000000000001C000020C400002092
:08024C000000000000000000AA
:1002540008B500F017F8000001230360014B0B60A0
:10026400704700BF0000002008B500F01DF8024AE6
:10027400024B9A6008BD00BF0000000800ED00E0DA
:1002840000F08AB8BFF34F8F0549064BCA6802F4E1
:10029400E0621343CB60BFF34F8F00BFFDE700BFA5
:1002A40000ED00E00400FA05374B82B01A6842F012
:1002B40001021A605968354A0A405A601A6822F0E5
:1002C400847222F480321A601A6822F480221A603E
:1002D4005A6822F4FE025A604FF41F029A60002208
:1002E400009201921A6842F480321A601A6802F489
:1002F40000320192009A01320092019A1AB9009ACE
:10030400B2F5A06FF2D11A6812F4003218BF0122BC
:100314000192019A012A30D11D4A116841F010015D
:100324001160116821F003011160116841F00201AC
:1003340011605A685A605A685A605A6842F4806276
:100344005A605A6822F47C125A605A6842F4E812DD
:100354005A601A6842F080721A601A689201FCD5D9
:100364005A6822F003025A605A6842F002025A6044
:100374005A6802F00C02082AFAD14FF00062054BC9
:100384009A6002B0704700BF001002400000FFF8FE
:100394000020024000ED00E0104B11495A6802F0C1
:1003A4000C02082A0AD00F4A0A605B680E4AC3F39B
:1003B4000313D25C0B68D3400B6070475A685868CB
:1003C400C2F38342C00302F1020202D4074842434B
:1003D400EAE758688003F9D40248F8E700100240BD
:1003E4001800002000127A000800002000093D00D7
:1003F400F8B500240A4F0B4E57F83420E50042B1FB
:100404003D44AB79012B04D1A35D33B990472B79DB
:10041400A35501340A2CEFD1F8BD013BF8E700BF26
:1004240020000020B8000020092A30B50ED8094D5C
:1004340055F8324064B945F8320005EBC20529711C
:10044400054920468B540123AB7130BD0120FCE7E4
:100454000220FAE720000020B8000020024942F2FE
:10046400107000F00BB800BFF5030008024A1368CF
:1004740043F002031360704710E000E00022064BD3
:100484001A70064B1960064B9A6058601A6842F05D
:1004940001021A60704700BF740000207000002041
:1004A40010E000E008B5074B1B6803B19847064B02
:1004B4001B78012B01BF054A136823F00103136065
:1004C40008BD00BF700000207400002010E000E0B0
:1004D400044B1A6842F480321A605A6801225A6046
:1004E400704700BF0010024001280AD002D302283E
:1004F4000DD070470120094B88405A691043586158
:100504007047064B8840DA691043D8617047012070
:10051400024B88409A69104398617047001002406A
:10052400072910B515D801280FD002D302280ED000
:1005340010BD1D480F23046889008B4024EA03047E
:1005440002FA01F121430160F2E71848F2E7184882
:10055400F0E701281AD00CD30228E9D10F20144C5B
:10056400083989006368884023EA000302FA01F12C
:100574000AE0A1F108000F210B4C80006368814060
:1005840023EA010302FA00F119430BE0A1F1080385
:100594000F21064C9B006068994020EA010002FA92
:1005A40003F101436160C3E700080140000C01400E
:1005B40000100140012807D002D302280AD0704756
:1005C400054BDA68012001E0044BDA6888405040AA
:1005D400D8607047024BF4E700080140000C01406A
:1005E4000010014008B5054B1B6803B19847044A45
:1005F400536943F00103536108BD00BF7800002034
:100604000004014000210846FFF7D4BF0121002067
:10061400FFF7D0BF02210020FFF7CCBF0321002049
:10062400FFF7C8BF04210020FFF7C4BF0521002045
:10063400FFF7C0BF06210020FFF7BCBF0721002041
:10064400FFF7B8BF10B5FFF743FFFFF70FFF022115
:100654000846FFF749FF0024E1B2012200200134DB
:10066400FFF75EFF082CF7D100230A211A46184829
:10067400FFF7DAFE01230F211A461648FFF7D4FECE
:10068400022314211A461448FFF7CEFE032318212F
:100694001A461248FFF7C8FE04231C211A461048C4
:1006A400FFF7C2FE052320211A460E48FFF7BCFEC1
:1006B40006232E211A460C48FFF7B6FE07233621DF
:1006C4001A460A48FFF7B0FEFFF7C8FEFEE700BF70
:1006D400090600081106000819060008210600088A
:1006E40029060008310600083906000841060008FA
:1006F4001C000020000000000000000000000000BA
:0C070400010203040607080900A24A04D1
:040000050800010DE1
:00000001FF
