:020000040800F2
:1000000000500020C5010008C9010008CB0100080C
:10001000E1010008E3010008F90100080000000008
:100020000000000000000000000000000F020008B7
:10003000110200080000000013020008510500082A
:1000400029020008290200082902000829020008E4
:10005000290200082902000859070008290200089F
:1000600029020008290200082902000829020008C4
:1000700029020008290200082902000829020008B4
:1000800029020008290200082902000829020008A4
:100090002902000829020008290200082902000894
:1000A0002902000829020008290200082902000884
:1000B0002902000829020008290200082902000874
:1000C0002902000829020008290200082902000864
:1000D0002902000829020008290200082902000854
:1000E0002902000829020008290200080000000077
:1000F0000000000000000000000000000000000000
:1001000000000000000000005FF808F107B500F0F3
:10011000ADF8214A214B22498B4226D30021214BA5
:10012000214A934226D300F0ADF801A9684600F0B9
:1001300095F800251D4E1E4CA41BA410AC421CDCDF
:1001400000251C4E1C4CA41BA410AC421ADCDDE99B
:10015000000100F011FB0646184D194C641BA41059
:10016000002C14DC304600F075F852F8040F43F808
:10017000040BD1E743F8041BD3E756F82530984722
:100180000135DBE756F8253098470135DDE7013CBE
:1001900055F824309847E3E7A8A70008000000209E
:1001A0001C0000201C0000206800002054020008F1
:1001B00054020008540200085402000854020008C7
:1001C0005402000814480047FEE71EF0040F0CBF5D
:1001D000EFF30880EFF309807146104A1047FEE7FD
:1001E000FEE71EF0040F0CBFEFF30880EFF3098069
:1001F00071460B4A1047FEE71EF0040F0CBFEFF3E9
:100200000880EFF309807146064A1047FEE7FEE7D3
:10021000FEE7FEE7704700000D010008DF0100085F
:0A022000F70100080D020008FEE7D8
:10022C00ACA70008000000201C000020ACA70008B0
:10023C0000000000000000001C00002068000020EE
:08024C000000000000000000AA
:1002540008B500F017F8000001230360014B0B60A0
:10026400704700BF0000002008B500F01DF8024AE6
:10027400024B9A6008BD00BF0000000800ED00E0DA
:1002840000F08AB8BFF34F8F0549064BCA6802F4E1
:10029400E0621343CB60BFF34F8F00BFFDE700BFA5
:1002A40000ED00E00400FA05374B82B01A6842F012
:1002B40001021A605968354A0A405A601A6822F0E5
:1002C400847222F480321A601A6822F480221A603E
:1002D4005A6822F4FE025A604FF41F029A60002208
:1002E400009201921A6842F480321A601A6802F489
:1002F40000320192009A01320092019A1AB9009ACE
:10030400B2F5A06FF2D11A6812F4003218BF0122BC
:100314000192019A012A30D11D4A116841F010015D
:100324001160116821F003011160116841F00201AC
:1003340011605A685A605A685A605A6842F4806276
:100344005A605A6822F47C125A605A6842F4E812DD
:100354005A601A6842F080721A601A689201FCD5D9
:100364005A6822F003025A605A6842F002025A6044
:100374005A6802F00C02082AFAD14FF00062054BC9
:100384009A6002B0704700BF001002400000FFF8FE
:100394000020024000ED00E0104B11495A6802F0C1
:1003A4000C02082A0AD00F4A0A605B680E4AC3F39B
:1003B4000313D25C0B68D3400B6070475A685868CB
:1003C400C2F38342C00302F1020202D4074842434B
:1003D400EAE758688003F9D40248F8E700100240BD
:1003E4001800002000127A000800002000093D00D7
:1003F400002108B50846012200F078F9642000F0D5
:1004040093F800221146104600F070F9012000F024
:100414008BF800210122084600F068F9642000F0FE
:1004240083F800221146104600F060F9642000F0C1
:100434007BF800210122084600F058F9BDE8084085
:10044400014800F071B800BFC0D40100002210B50B
:1004540004460121104600F049F92046BDE8104049
:1004640000F0C8B8012210B504461146002000F07F
:100474003DF92046BDE8104000F0BCB8002108B5A5
:100484000846012200F0E8F801220020114600F09D
:10049400E3F800F071F800F046F8FFF7A9FF112027
:1004A400FFF7D4FF43F6982000F03EF83A20FFF718
:1004B400CDFF0520FFF7D6FFBDE808402920FFF750
:1004C400C5BF38B504462A200D46FFF7BFFF0020FC
:1004D400FFF7C8FF0020FFF7C5FF0020FFF7C2FFAA
:1004E4007F20FFF7BFFF2B20FFF7B0FF0020FFF7AF
:1004F400B9FF0020FFF7B6FF0020FFF7B3FF9F20EE
:10050400FFF7B0FF2C20FFF7A1FF04EB4505AC4239
:1005140000D138BD2088000AFFF7A4FF34F8020B8D
:10052400FFF7A0FFF3E770470022074B9A6058607B
:100534001A6842F001021A601A68D203FCD51A68DC
:1005440022F001021A60704710E000E008B5074B82
:100554001B6803B19847064B1B78012B01BF054A62
:10056400136823F00103136008BD00BF20000020BE
:100574002400002010E000E008B51D4B06211A6895
:10058400002042F040021A605A6842F004025A60A5
:100594001A6842F002021A601A6842F001021A60F4
:1005A4001A6842F004021A601A6822F038021A60CB
:1005B4001A6822F080021A601A6842F400721A6003
:1005C4001A6842F480721A601A6822F400621A608F
:1005D400042200F041F809220721002000F03CF831
:1005E400BDE8084009220521002000F035B800BF0D
:1005F40000300140034BD8609A681206FCD4D868D6
:1006040080B2704700300140044B1A6842F48032D3
:100614001A605A6801225A60704700BF00100240F5
:1006240001280AD002D302280DD070470120094BBB
:1006340088405A69104358617047064B8840DA690C
:100644001043D86170470120024B88409A691043D7
:100654009861704700100240072910B515D8012889
:100664000FD002D302280ED010BD1D480F230468FA
:1006740089008B4024EA030402FA01F1214301605A
:10068400F2E71848F2E71848F0E701281AD00CD32B
:100694000228E9D10F20144C083989006368884086
:1006A40023EA000302FA01F10AE0A1F108000F2194
:1006B4000B4C80006368814023EA010302FA00F1D5
:1006C40019430BE0A1F108030F21064C9B0060685D
:1006D400994020EA010002FA03F101436160C3E793
:1006E40000080140000C014000100140012A13D110
:1006F400012809D002D302280CD07047124BD868C5
:100704008A400243DA607047104B8840DA6810432D
:10071400D86070470E4BF2E762B901280BD002D3C0
:1007240002280FD0704708480122C3688A4023EA90
:100734000202C2607047054A8840D36823EA000079
:10074400D06070470248EFE700080140000C014008
:100754000010014008B5054B1B6803B19847044AD3
:10076400536943F00103536108BD00BF2800002012
:100774000004014008B5FFF747FF02210846FFF7D0
:100784004FFF0C210220FFF74BFF00210220FFF74F
:1007940047FFFFF773FE4FF4A0410248FFF791FEB5
:1007A400FEE700BFAC070008CE73EE730F7C2F7C0E
:1007B4002F7C307C508450845184718C718C728C69
:1007C400518C518C518C518C718C718C928C139DE9
:1007D40075ADF7BD58C699D6BAD6DAD6BAD6B9D653
:1007E400BAD699D699D6B9D6FBDE1CE75DEF7DEF74
:1007F4007DEF5DEF1CE7FBDEBAD69AD69AD69AD681
:100804009AD699D679CE58CE18C618C618C618C620
:1008140038C659CE9AD6DADEFBDEFBDEBADE99D6CE
:1008240058CE38C637C637C658CE58CE38C617C67F
:1008340018C638CE38CE38CE59CE79D6DBDE59CE6E
:10084400728CB394738CD49CD59CD59CB49CF59C2D
:100854007394D8BDBBD6BBD6BAD679CE79CEBAD628
:10086400DBDE9AD6FCE656ADAF7B1184F07B528C6E
:10087400738C32849394528C76AD1CE7FBDEFBDEE2
:100884003CE73CE75DEF7DEF7DEF5DEF3CE71CE788
:100894001CE7FBDEFBDE1BE7FBDE1BE71BE7FBDEE7
:1008A400FBDEFADEDADEDADEAD6BAD6BAD6BAD6BC3
:1008B400CE73CE73EF7B0F7CEF7B0F7C3084308460
:1008C40050845084518C518C718C51845184518446
:1008D4005184718C9294D29434A595ADF7BD38C6E9
:1008E40078CE79CE99D6FADEBAD6BAD6BAD6DBDEC7
:1008F400DBDEFBDEFBDE1BE73CE73CE73CE71BE71C
:100904001BDFFADEBAD699D67AD679CE59CE59CE2D
:1009140039CE38C618C618C638C659CE79D6BAD60E
:10092400BAD6BAD6BAD6B9D679CE59CE38C618C63A
:1009340018C618C6F8C5F8C518C618C679D618C694
:100944007294B39C7394B494D59CB49C7494B49CE6
:10095400939419C61DE7DBDEBAD699CE79CE79CE4B
:1009640079CE7ACEDBDEF49C8F7331841184328CA1
:10097400328C12847394328456ADFCDEDBDEFBDEF3
:100984003CE73CE75CEF5CEF7DEF5DEF5DEF3CE760
:100994003CE73CE71CE71CE71CE71CE7FBDEDBDE6F
:1009A400BAD6BAD6DAD6DADEEE73AD6B8C6B6C637C
:1009B4006C634C634C632B636C636C636C636D6B33
:1009C4008D6BCE73EF7B0F7C2F7C50847084918C65
:1009D400718C508450845084508471845084718408
:1009E4009294D39C13A554ADD6B5F7BD38C658CE52
:1009F40079CE99CEB9D6BAD6BAD6DAD6DADEFADE56
:100A0400FBDE1BDF1BE73CE73CE7FBDEDADEBAD6A6
:100A140099D699D679CE79CE59CE58CE37C617C63F
:100A240017C617C638C638C659CE39CE39C639CED8
:100A340039CE59CE39CE39CE38CE18C639CEF7BDD7
:100A4400518C92947294B39494949494B49CD49C42
:100A5400738CF8BD3DEF3CE7FBDE1BDFFBDEBAD653
:100A6400BAD6BAD6BBDE9394AF73528C528C328C06
:100A7400328432849394328C97B51CE7FBDEFBDE20
:100A84001CE71BE71BE71BE73CE73CE73CE73CE7CD
:100A94003CE73CE73CE73CE71CE71CE71BE7FBDEE5
:100AA400DADEBAD6DADEDADE57C616BE94AD129DA9
:100AB400B18C2F7CCD738C6BEA5AEA5AEA5AEA5A03
:100AC4000B5B0B5B0B5B0B5B4C636C638D6BAD73F4
:100AD400EE73EF7B0F7C3084508471847184718C4D
:100AE400928C928C71845184718C918CB294D29C2E
:100AF400139D54ADB6B5D7BD38C659CE99CEBAD626
:100B0400BAD699D699CE99CEDAD6DBDE1BDF3CE78E
:100B14003CE73CE71BDFFADEDADEDAD6B9D699CE5B
:100B240079CE58CE58C638C618C6F8BDF8BDF8C533
:100B340018C639C618C618C659CE58CE79CE38C686
:100B44009194718C9294D39CF59C94947394939403
:100B5400328C56AD9AD638C69AD6BAD6DADEDADEF2
:100B6400DBDEDBDEFCDE93948E733184118411842E
:100B7400F1831184738C328476ADBBD69AD6BAD6FF
:100B8400DBDEFBDE1BE71CE71CE71CE71CE71CE7BE
:100B94003CE73CE73CE73CE71CE71BE7FBDEFBDE0E
:100BA400FBDEFBDEFBDEFBDE94ADF5B577C6F9D6E6
:100BB4001ADFF9D698CE57C6B5AD33A5908CEE7B27
:100BC4008C6B4B634B632B632A5B2A5B2B5B2B5B2A
:100BD4004B636C638D638D63AE6BEF73EF73EF7375
:100BE400107C317C7184928C718C718C718C718CC1
:100BF400518451845184718C718CB294F39C35A5C9
:100C040096ADD7B538C679CE99CE99CE99CE99CE30
:100C140099CE99D6BAD6DADEFBDEFBDEFBDEDBDE6E
:100C2400DADEBAD69AD699D659CE39C618C618C6B7
:100C3400F8C5F8C5D7BDD7BDF7C517C638CE38C671
:100C4400B294508C718C9294F5A494949494B49C22
:100C5400939415A57ACE39C638C658CE58CE58CEF8
:100C640079CE79CE9AD6528CCF7B11841184328C72
:100C7400528C528C9394728C97B59BD69AD69AD6F2
:100C8400BAD6DADEBAD6DADEFBDEFBDEFBDEFBDE6C
:100C9400FBDE1CE71CE71CE73CE71BE7DBDEDADED8
:100CA400DBDEFBDE1BE71BE7CD73AC6B6B636B63B7
:100CB400AC6B2F7CF19453A5F6B537BE98CED9D63C
:100CC400B9D657C6B5B553A5D19490840E74AC6B00
:100CD4006B634B5B2B5B2B5BEA522B5B4C5B6D6357
:100CE4008E6BCE6BAE6BAE6BCF73F07B3084518466
:100CF400728C728C728C528C728C728C528C518469
:100D040031845284928CB394F29434A595ADF6B5A3
:100D140037BE58C699CEBACE99CE9AD69AD69AD616
:100D24009AD6BAD6BAD6BAD6DAD6BBD6BBD69AD65D
:100D34007AD67ACE5ACE59CE38C618C6F8BD18C659
:100D4400B39C528C9394738C328C3284538C9394D2
:100D5400738C939419C659CE59CE58CE79CE79CE88
:100D640059CE38C639C6F07B8E73AF7BD07B3284C4
:100D7400328C3284328C318439C6FCDEFBDEFBDEFD
:100D8400DBDEDADEBAD69AD6BAD6BAD6DBDEDBDE5C
:100D9400DBDEDBDEDBDEFBDEFBDEFBDEDBDEFBDE07
:100DA400FBDEFBDEDBDEDADEB4ADD5B5D5B5B4AD46
:100DB400339DB08C2E7CCD738C6B6B636B638C6BAF
:100DC400EE73908C329D94ADF6B536BE37BE36BE0A
:100DD400F6B574A5D29470842F7C0F74AD6B8D63BB
:100DE400CE6B0F740F74EF73F073CF73AF73AF7375
:100DF400AF73D073F07BF17BF07B117C5284728CE7
:100E0400738C5284528432845084708471847184CB
:100E1400918CB28CD294F39C75ADB6B5F7BD38C63F
:100E240059C659CE7ACE7ACE58CE79CE99CE9AD6A4
:100E34009AD6BBD6BBD6BBD6BBD69AD659CE5ACE3B
:100E440015A5738CF59CB49493947394738C7394D8
:100E5400B3949394D7BDD7BD18C618C658C678CED8
:100E640079CE59CE59CEF07BAF73D07BF1833284E7
:100E7400528C3284328C3184F8C5BBD6BAD6DADED1
:100E8400DADE1BDFFADEFBDEBAD6BAD6BAD6BAD6BB
:100E9400BAD6BAD6BAD6BAD6BAD6BAD6BAD6DADEA6
:100EA400DBDEDADEBAD69AD60E7C4F84B18C339D63
:100EB40094ADF6B537BE57C637BE16BED5B553A5E5
:100EC400D1942E7CAC6B6B634B636C63AC6BEE7335
:100ED4004F84B18CF294139D339D74A574A574A5AD
:100EE400B5ADB5AD94A574A5F494D494938C528403
:100EF400317C117CF073D073D073D073D073D07302
:100F0400D073F17B117C327C507C5084718470846A
:100F1400508450845184518430845184718C728CF7
:100F2400928CD39435A576ADD5B516BE37C657C6C3
:100F340078C678CE79CE99CE79CE99CE99CEBAD6D6
:100F440055AD718CD39C9294728CB49CD49C939424
:100F5400B394728CD7BDF8BDD7BDD6BDD6BDD6BDB2
:100F6400F7BD18C6F8BD8E73D07BF07B1184128454
:100F7400128432843284318497B539C638C638C66F
:100F840058CE99D699D6BAD6BAD6BAD6BAD6BAD689
:100F9400BAD6BAD6BAD6BAD699D679CE79CE59CEE9
:100FA40059CE79CEBAD6DADE474247424742484262
:100FB400884AEA524C638D6B2F7C908C129D94ADC1
:100FC400D5B516BE16BE37BED5B594AD129D908C60
:100FD4002F84EE738C6B6B634B634B638C630E7467
:100FE4006F84B18C339DD5AD96ADB7ADD7B5F8B59B
:100FF400F7B5B6AD55A5149D938C7284317CF0730E
:10100400D073D073D073D073CE6BEF730F740F742F
:101014000F7C307C307C507C7184518431843184E9
:101024001184F07BF07BF07BED730E7C4F84908C0D
:10103400B18C129DB5ADD5B537C698CE57C698CEEE
:10104400B5B52F84D294508C728C93949394D49C81
:101054009394528C56AD39C618C6D7BD17C6D7BDA2
:10106400F7BDF7BD35A58E73F07B11841184F17B38
:10107400F17B11843284318476AD39CE18C638C6FA
:1010840058C658C658C658CE58CE58CE59CE99D6FA
:101094009AD699D69AD6DADE9AD679CE59CE38C669
:1010A40038C679CE99D6BAD6073A273A6842684AFA
:1010B400894A684A68426842274248424842894A03
:1010C400A9520B5B6C63AD6B3084718CF29C53A59D
:1010D40074AD74A5339DF29CB08C4F84ED73CD73C5
:1010E4008C6B6B638C63ED73CE730F7C9184F29481
:1010F400349D75A5B6ADD6B5F7B5F7B5D6B596ADED
:1011040054A5F394928C7184307CEF73AE6BCE6BE8
:10111400CE6BAE6BCE6BCF73CF73CF73CF73F07BCD
:10112400107C117C117C11843184107CCF738F6B03
:101134006E6B2D632D5BEC5A2C63EF73918CF39CD7
:1011440054A55084718C918C528CB3949394B39421
:10115400D49C528CB3949AD67ACE79CE58C638C6DB
:1011640018C659C676AD6E6B11841184118411842E
:10117400118432843284318414A57ACE79CE79CE26
:1011840099D699D699CE58CE59CE58CE38C638C6A7
:1011940038C638C638C638C617C617C638C638C69D
:1011A40059CE9AD679CE9AD6A529A529A529A529B5
:1011B400A631E631073A273A694A694A894289429F
:1011C4008942894AA94AA94A684A694A894AA95264
:1011D400EA5A2B638C6BCD730E7C0E7C4F84908CFF
:1011E400B08C6F844E7C2E7CCD6BCD6BAD6B8C6BD9
:1011F4006C636C63AC6BCD73CD6BEE734F7CB18C55
:10120400F294339D74A595AD75A5349D1395F3940F
:10121400B28C5084EF73AE6B8D6B8D638E6B8E6B63
:101224008E6B8E6BAF6BAF73516BB273D373F47BF6
:101234003484F37BD273B173AD522A42C831E83996
:101244000942F17BB394528C928CB394B494B394CA
:10125400D49C738C528CF8BD59C659CE59C679CEDC
:1012640079CEBAD6149D6E6B1184118432841284A3
:101274003284528C328C318435A59AD618C618C65D
:1012840038C658CE79CE79CE79CE99D699D679CE3C
:1012940079CE58CE18C6D7BDD6BDF7BD38C638C628
:1012A40059CE9AD679CE9AD62B5B0B5BEA52A94AD1
:1012B4004842073AE631C631852985298529852999
:1012C400C629E731073A073A694A894AAA4ACA52FB
:1012D400CA52CA52CA52EA52EA52EA52EA520A5B61
:1012E4002B5B6C63AC6BAD6BED730E742E7C2E7C40
:1012F4002E74ED73AC6B8C638B636B636B636B5B92
:101304004B5B6B638B63AC6BEF732F7C7184D28C00
:10131400339D74A574A5549D1395D294918C5184D6
:10132400107CCF73AF6BAF6B726B736B736B736B40
:1013340052633163726B716B0F5B8C4A2A42093AB8
:101344004621AF73B494728C9394728CD49CD49CC5
:1013540093949394738C738C55A576ADD7BDF7BDD8
:10136400F7BDF7BDCF7BCF73F07B11843284328419
:10137400528C738C538C328456AD9AD618C638C6A8
:1013840058CE17C637C617C638C638C658CE59CE33
:1013940059CE38C618C6F7BD38C638C659CE18C691
:1013A40038C659CE79CE9AD60B5B0B5B2B5B4C635C
:1013B4004C634C634C632C632C5B0B53CA52894AB9
:1013C4004842083AE731C631A629A5298529A62924
:1013D400C629C631073A283ACA4AEA520B53EA5296
:1013E400EA52EA52CA52AA520A530A53E9520A5317
:1013F4002A5B6B63CC6BED730D74ED73CD6BCD6BAE
:10140400CD6BAC6BAC6BAC6B6C638D638D638C63BD
:101414008C63AD6BCD6BEE739084B18CF294549D60
:1014240074A554A5549D349D169D7484337C3384D3
:10143400127C127CF17B4E63EC5AAB4AAA4A2842D6
:10144400C631684A3084B194728C728CB494F59C21
:10145400738C739493948F732942CC5AAF733084F2
:10146400928C92944D6B3184F07B11843284328C53
:10147400538C738C538C328497B5FBDEBAD6BAD6B0
:10148400BAD678CE78CE58CE38C618C617C617C680
:1014940017C6F7BD17C638C658CE58CE59CE18C68B
:1014A400F7BD38C638C659CECE738D6B6C632B5BD3
:1014B4000B5B0B5BEB5A0B530B530B5B0B5B0B5B29
:1014C4000C5B0C5B0B5B0B5BEB52CA4AAA4A894A66
:1014D4006942283AE731E731A629A629C731E7311D
:1014E400083A483A69428A4AEA52EA520B5B0B5B71
:1014F400EA52CA52CA4AC94A0B5B0A532B5B4C6371
:101504008C638C638C638C6BCE6BAD6BCD6BCD6B52
:10151400CD6BAC63AC6BCD6B6B636B5B4B5B6C6328
:101524008D63CE6B0F74507CF294339D95A574A596
:101534000F7C6D636D630B5B0A53884A8842874A4C
:10154400263AA84A908C4F84518C93949394D49CBB
:10155400B49C739493941184C839C839E839494ABE
:101564000C5B4D6B6E6BF07B11841184328C328C6E
:10157400538C538C538C328C15A559CE79CE79CE9D
:1015840058CE99CEB9D699D6BAD699CE79CE79CE47
:1015940058CE17C617C638C638C659CE79CE38C6FF
:1015A40018C638C618C638C698CE78C637BED6B55B
:1015B40074A5139D918C70840F7CEF738D6B4C5BC1
:1015C4000B53EB52EB520B536C5B2C5B2C534C5B6D
:1015D4004C5B2C5B2C5B2C5B0C53EB52AB4A6A428E
:1015E400493A093A0832E831A629C731E731283A9D
:1015F40049428A4ACA4AEB524C5B2C5B0C5B2C5B1B
:101604002C5B0B5B0B5B2C5B2B5B2B5B2B5B4B63BC
:101614008B63AC6BAC6B8B63AC6BAC6BAC6BCC6B40
:10162400AC6B8C636C634C5B29534A5B4A5B6B63A6
:101634004B5B2B5B4C5B2B5B2B5BEA52C94AC9525D
:10164400A5310B5BF39C718C728CB394B494B494F9
:10165400D49C94949394B494CC5A252186318631A5
:101664000842CB5AAF73F07B1184328C528C528C6B
:10167400538C538C538C528CB39434A575ADD6B51E
:10168400D6BD38C658C658CE58CE58CE79CE99CE87
:1016940079CE58CE18C618C638C659CE79CE38C6B3
:1016A40018C638C618C638C6D194129D74A5F6B5A6
:1016B40058C699CEB9D6DACE99C678C617BE95ADB6
:1016C400139571840F74CE6B8D634C5B4C5B4C5BD8
:1016D4004C5B4C5B4D5B6D638E636E636E636E63DC
:1016E4006F636E634E632E5B2D630C5BCB528B4A30
:1016F4006A424942E831A729A729C731E83149425A
:101704008A4AAA4AEB522D5B2B5B6B632A5BE95234
:101714008B63B08C1195F08C2E7CED73AC6B8B636A
:101724006B636C638C63CD6BCC6B0D74AC6B8C6333
:10173400AD6B6D632C5B4D5BEC52CB52CB528B4A41
:101744004A420D5B9394538CB394B394D49C939476
:101754009394B49C739493948F7346298E6B6E6B9D
:101764000C636E6BAF7310841184328C528C528C68
:10177400538C538C7394738C518C8E734D6BCE73CA
:101784000F84718CB19434A595ADB5B5D6BD17C68B
:1017940038C679CE79CE58CE38C659CE79CE18C649
:1017A400F7BD18C618C638C6918C4F842D7CEC73CF
:1017B400CB6BCB73ED730E7C908CD19453A5B4ADED
:1017C40036BE78C658C638C616BEB5AD73A553A581
:1017D400329DF39CD394938C117CF07BAF6B6E6B36
:1017E4006D638E6B8F6B8F6B716B716B516B716BE8
:1017F400716B71633063105B0F5BCE526D4A0B3AB1
:10180400EA31C931C931A829C831E9314A3A6A42B1
:101814008A4A0C5BEF73918C718C918CB5AD73AD6E
:1018240053A5129D708CEA5A6C6BCD738C6B8C6BC8
:10183400CD73CD6BED73ED73ED73AC6B8C6B2A5B79
:10184400684A2B63D294908C9294D39CD49CB49485
:10185400B49494949494538CF17BD07B14A5B7B531
:1018640035A5EC5ACF7BF07B1184528C528C528C70
:10187400738C738C738C738C93944E6BED5A2E63B0
:101884000D5B0D634E634E634B63EE7BCD734F84F0
:10189400918C53A5D6B517BE37BEBACE9ACE59C6CB
:1018A40059C618BE18BE18BE94ADB4ADF5B515BE74
:1018B40014BEF4B5B4AD94AD329DF0948E842C7CFA
:1018C4000C740D740F7C0F7C908C908CF19452A549
:1018D40094ADD5B5F7BD18BE18BEF7BDD6B595AD58
:1018E40054A534A5149DF49C938C5384127CD17319
:1018F400B173B16B916B916B706B906B906B906BE0
:101904006F6B6F634E632D5BCC528B4A4A42493AEC
:10191400083AC731862944216529E631C631694A26
:10192400EA528D6BEF7BCA525084139D339DF2941F
:10193400B18C90844F7C0E74EE7370844F84908CC1
:10194400B1947084718C718C9294D39CD49CB49C0B
:10195400B49CB49C9494738C3284EC5A0D63F07BE5
:10196400CF7B0C63CF7331841184328C528C528CB4
:10197400738C738C738C738C738CD59CB4944E6BF6
:10198400F07B6E6B6E6B4E632E63ED5A2E630D63AC
:101994000D5BEC5A2D63AF73107C107CB29434A5AC
:1019A40074A517BED6B537BE0A5B2A5B8B63CD73AD
:1019B4002E7C908CD294129DB4ADF4B534BE54BE3A
:1019C40034BEF4B5D4AD94AD53A5F1948F8C4E7C54
:1019D4000D74ED730E7C0E7C0E7C6F84D194129D7D
:1019E40073A5B5ADD6B5D6B517BE17BEF7B5D7B581
:1019F40096AD559DF494B38C5284327CF173AF6BE5
:101A04008F6B8F6B8E638E63CF6B8E638E638D6BE8
:101A14008D636D632C5BEB52EB526942083AC7311C
:101A240066298629462146214521A731083A8A4A52
:101A34002C5BAE6B5084B28CD28CB28C7184928C41
:101A4400718C718CB394928C9294B39CD49CD49CDE
:101A5400D49CB59C9494738C528CEC5AA731A731C6
:101A64004942EC5A8E6B107C1184528C538C538CEB
:101A7400738C738C738C7394738C56ADB7B556ADED
:101A840059C6B7B596ADF49CB79C34849273306351
:101A9400CE5AD27B706BED5A2E636E6B2C634D6302
:101AA4008D6BAE732F842F7CA429A529C629C73139
:101AB400E731283A6942AA4ACA4A0A536B63AD6BB2
:101AC4000E746F84D08C1195539D329D73A5B4AD63
:101AD400B3AD93A572A5319D8F846E844E7C0D7435
:101AE400CC6BCD6BED730E742D7C4E7C8F84D194B6
:101AF400329D94A5D6ADF6B5F7B5F7B5D6AD75A5B7
:101B0400349DF394B28C7184EE73EE6BCE6BCD6B1B
:101B14008D636D638D638D636D632D5B8F6B0D5B67
:101B24004F634F63CD52AD524A42093A8729872900
:101B340066210419041925196621083A6A42CB5210
:101B44002D63117CB394528C9294B394F49CD49CE2
:101B5400D49CD59C94949394528C1184528CF07B95
:101B64002D63EC5AF07B31843284528C538C738C09
:101B740073947394738C7394528C728C518C14A5DB
:101B840018BE17BE18BEB6B51BC69DD699B5B1739F
:101B9400AD52D59CD5940E5B6F6BCD5A2E638F6B73
:101BA400CC522E634E6B6E6BE531E631C729A72903
:101BB4008621652164216421842185218629A72920
:101BC400E831283A674287420A53E9522A5B6B6339
:101BD400AC6BED734E7C4E7C4E7C6E84AF8CB08CC3
:101BE400908C6F844F844E7C0C740C74EC6BAB6BD8
:101BF400AB6BAC6BCD6BCD6BEE732F7C9084D28CC6
:101C04001395539D74A574A5B4A573A5539D1295FE
:101C1400F18CB18C70840F74AE6BAF6B8F63AF6B50
:101C2400D0734F634F634F632E632E63ED52AB4A01
:101C3400493AE831E831C729A729041904190519D3
:101C44008308ED5A159D938C9394B394F49CD49C7F
:101C5400B49CD59C949494947394D07B738CD49CAE
:101C64004E6B8B521184D07B3284528C538C738C88
:101C74007394738C528C738CB39492940C5BCB5A84
:101C84002C638D6B0F7C918CB294139DB6B5928CA2
:101C94006E6B4D6335A5B7B577AD77ADD17B9494B5
:101CA4009073EE5A8C4AEE5A2B5B2B5B0B53EB5220
:101CB400AA4A894A68426742473A073AC73187299C
:101CC400662966218521852964218421C629E73175
:101CD400E731273A8942C94A0A532B5B4C636C6348
:101CE400AD6B0E744F7C6F844E7C6F846F846F84F5
:101CF4004F7C2E7C0E74ED73CD6BCD6BAD6B8C6312
:101D04008C638C63AC6BCC6B2E742E744F7CB08460
:101D1400F194339D539D1395307C0F74CE6BF07307
:101D2400107492841074F1732D630C5BCB4AAB4A2C
:101D34006A42283A283AE831A729C72986298629F8
:101D4400C831AF73938C738CB394B394F49CB49CE8
:101D5400B494D59C9494B494538C528C2D634E6B50
:101D6400EC5A0D63D07B11843284528C528C538C88
:101D7400738C538C528C728C728C728C3184108460
:101D8400EF7B6D6B6C632B5BE95AC9522A5B4B6327
:101D94008C6BAD73D294B294CF73B6B5F07B56A569
:101DA400D8B5F17B1184ED5A0A530B5B2B5B4B6363
:101DB4004C634C5B0B5B0B530B5B0A530A530A5388
:101DC400EA52AA4A8B4A6B4A68424842483A083A5D
:101DD400A72966216621662165218629A729E7317D
:101DE400083A6842894AA94A4C5B6C638D638D6BDF
:101DF400AE6BCE6BEF730F74EE730E740E740E74C1
:101E04000E740D740D740D74CD6BCD6BCD6BCD6BE9
:101E1400CD6BED6BED73CD6BAC63AD6BEE6B8C6327
:101E2400EE6B549DCD6BC94A0C5BAA4A8A4AEB52AD
:101E3400EB526942483A07320732E731C631E7319B
:101E4400C731CF73D394928CB3949394F49CB49C81
:101E54009494D59C9494B49CB494B494C839831049
:101E640029426F6BB07311843284328C528C538C40
:101E7400738C538C528C7394B394528CB394D39CC0
:101E8400D394928C928C307CEE7BAC6B4B636B6303
:101E94004B634B634B634C630B5BEA5AEB5A0B5B30
:101EA4006C63CE7395ADB29453A5129DB18C5084DE
:101EB400EF7BAF736F6B4E632D632B5B2A5B295BE8
:101EC400095BEA52EB52EC5A0B5BEB52EB520C5BA4
:101ED400ED5AEC52CC528B4A6A424A42093AC83112
:101EE400A729862986298529462167218729C8317A
:101EF400E931293A8A4ACB4A2C5B6D63AD6BCE6BD0
:101F0400EE73EE730D74ED73EE73EE73EE73EE73A6
:101F1400EE73EE73EE73CD6BED73CC6BED730D74EA
:101F2400CC6B8B636B5B8B630B5B2B5B2B5B0B5304
:101F3400C94AA94AC94A6842483A483A273AE6315E
:101F44008529AE6BD294B294B3949394F49CB494D4
:101F54009494B59C9494B4947394B4942E63672924
:101F64008B526F6BD07BF17B328C528C528C528CA7
:101F7400738C538C538C9394738C93941184AF739C
:101F84005184D394B28CD394D29450840F7C6D6BCF
:101F94008D6B6C6B6C63AD738C6BCD738C6BAD7331
:101FA4004B636C634B63AD7358C699CEDAD6BAD61D
:101FB400BBD6BBD67ACE79CEF7BD94AD94AD329D67
:101FC400B08C708C2F7CEE73AD6B8D636D638E6BF8
:101FD4000C5B0C5B2C5B2D5B0D5B2D5B0D5B2D5B40
:101FE4002D5BEC5AEC52CB52AC4A4B420A3A0A3AB9
:101FF400E939C831A729872986298629A629E731FD
:10200400073A6842A94ACA4A0B5B2C5B6D6BAE73F4
:10201400CE6BCE730E740E74ED73ED6BED730D74A5
:102024000D740D74EC6BEC6BCD6BAD6B8C636C5BF6
:102034004B5B0A53C94AA94AA94A88426842684282
:10204400E6310F7CD294B294B3949394D49CD59CEF
:10205400B49CB49CD59C9494B4947394B4940D633C
:102064002A428F73B073D17B11841184528C528CA9
:102074001284328C74949494538C94946B4A0621F5
:102084004621A731C8312942CB520C5BCF73F07B78
:102094003084928C51845084107C107CAE738E6B8F
:1020A400CE738E6BAE738D6BAD73EE7B0F7CEF7B5B
:1020B4002F848F8CCF940F9D91ADB3ADF5B516BE23
:1020C40058C678CE57C697CE57BED5B5D5AD329D36
:1020D400539DB18CEE73EE738D6B8D6B6C634C639F
:1020E4004C5B2C5B4D634E636F636F636F6B6F630D
:1020F4004E632E5B2D5B0D5BCC52AB4A6A42283A91
:10210400E831C729A629A62986298629A629C731FF
:10211400E7392842894AA94A0B532B5B6C638C63C9
:102124008C638C63AD6BCD6BEE73EE730E740E74B7
:10213400EE73EE73EE73EE730F74AD6B6C630B5B47
:10214400EB52308451845084B394B39CF49CF49C3B
:1021540094949494D59CD59C738C949493948F73F9
:10216400AC528F73F17B528C11843184528C528C1B
:10217400538C738C538CF283538C7494F17B2A426A
:102184004B42E939C831C83167294621E518472946
:1021940067296729E939AB52EC5A6E6BCF73107C0F
:1021A400107C107CAE73EF7B119D53A532A533A533
:1021B40052A5309D0E95ED948C846C840C7C2E7C01
:1021C4002F7C0E7C2E7C6F84D18CB08C319D72A5BB
:1021D400D3AD519D319DB4AD73A594A573A573A5DD
:1021E400539D139D149DF49451845184107CF07379
:1021F400CF73CF73AF6B8E6BAE6BAE6B8E6B8E6B20
:102204008E634D632D5B0C53EB5AAA52694A2842E4
:10221400E731A63186296621452186298629862922
:10222400A629E731283A4942AA4ACA4AEB522B5B0B
:102234004C5B8D63CE6BEF735084D294149DF39CEE
:10224400149DB294107CB394D39CB394B39CD49C4B
:10225400D49CD59CB49C94949394738C738C2A4290
:102264000D633284D07BD17B518C318C328C528C77
:10227400538C538C74949594538C338C16A578B5E5
:1022840036A53284ED5A2E63548C8D520B422B4268
:10229400CA394B42A83126216629252145214521E9
:1022A4000419283A48422842485B89638A63EC73DC
:1022B4007084728CB494159D56A5D6B5F5B515BE2B
:1022C400D4ADD5B5D6B5149D1295D08C6E7C2F9512
:1022D4008D84CB6BED736B63ED732E744E7C8F84A6
:1022E400F08C329D95A596AD16B617B617B617B6EF
:1022F400F6B5D6AD95A554A51395D38C7184307CD1
:10230400EF73CF6BAE6B8E638D6B6D636D6B6D63B3
:102314004D632D634D632D5BCC52CC526B4A093A0D
:10232400C831A82987296621652165216521652190
:1023340065218621A629C729083A49426A4A8A4A58
:10234400EC5AF07B1084B394B294D39CF49CF49C28
:10235400B49CB494B494B4949494528CB4940D6393
:102364008731B0731284D07B118411841184328438
:10237400538C338C338C548C7494338CD59C1AC604
:10238400F9BDB8B5D073D0739594D594D59CD59C2C
:102394006F6BB073D073AC528B524942AA52694AE4
:1023A4004C63E73965298529C32904320532273A64
:1023B4000A3A6C29EF2032293029AE310A3A6A638D
:1023C400CB6BCC6B107C5384B18C12951095D2AD31
:1023D400719D11951395317C317C507C0E74EC6B9E
:1023E400CB6B8B638D6B6D638C63AC6B0E74708481
:1023F400B18CF294339D74A5B5ADD6ADF6B5F7B5F1
:10240400D6AD75A51495D38C2F7C0F7C0F7CEF7300
:10241400AE6B8E6BAE6BAE6B8E6B8F6B8F632E5B06
:10242400ED52CC528B4A4A42483A083AC73186297F
:1024340065214521451945192519E410E418E418C6
:10244400E4186E6B728C3184518CB294F49C15A593
:1024540015A5D59CB494B494738C9394B494528C71
:1024640009428B52738C538C328C528C118411849C
:102474007494B59C9494538C748C9494328C0E63A1
:102484004E638F6B6E6B6E63AD6BF6B5308454A583
:10249400139D928CF7BDB2948E6BAF73AA528E6B60
:1024A400F07BD494107C0D63A810E71826196729D3
:1024B4000C3AAF31B018B3205010AD18E818894267
:1024C4004A5BC84AAA4A127C4D634C5B6B634A5B05
:1024D400CC6B4D5BEF5A936B936BD373F0732E7C81
:1024E4002D7C2E7C4F7C10740E74ED73CD6BAD6B14
:1024F400AD6BAC6B8C638C63AD6BAD6BCD6BEE7302
:102504000F744F7C507C7084908490849084708489
:102514000F74EE73CE6BCE6B8E63AE6B8E6B4D5BB6
:10252400EC52CB4AAB4AAB4AA94A6942283A073231
:10253400E731C629A629A629E731C7318629862984
:1025440086298E6BF07B10849194F39C35A5F4A4BA
:10255400B49C93947394B49493949394B494728C1D
:10256400528C6F6B538C9394B494528C1184328C30
:10257400538C538C538C9494128473949394AF73AC
:10258400CF732D632C5BCB52095B4A63E952C9526A
:10259400E9522A5B0A5B6C6BF39C96AD728C3184B6
:1025A400F59C738CD494F59C531030080A002500D4
:1025B4008929CD528E4AF15A704AD0528D4AAA4A7C
:1025C400A8424B5B8D637184938CEF73AD6B4B5B53
:1025D4008E632C428A108C10ED206D29CA31493A41
:1025E400A842E9524C5B6D636C63AD6BCE6BCE6BF2
:1025F400EE730E740E74CD6BED730D740D74ED7378
:10260400CD6BCC6BCC6BCC6BAC63CC63ED6B0E6CD9
:10261400CD6BCD6BCD6BAD63AD638D636D632C5BA7
:10262400EA52CA4ACA4AEA4ACA4AA94A8842483ABB
:10263400273A0732E731E731E731C73145214521F0
:10264400C7392C634D6B1084B294F39CD39C3184B2
:10265400AF736F73B07332849394728CF49C15A52A
:102664009394B49493949394538C12841284128408
:10267400B17B4F6B6F6BB17B9494528C528CD3941F
:10268400D394D294D294D294EE7B6C6BEA5A2B639B
:102694000A5BEA5A2B5B0B5B0B5B6D6B2C63EB5A8F
:1026A400EB5A0C5B8E6B0C5B1D185918B218680042
:1026B400A521064BC342254BE74A673AA942CB4AB8
:1026C400E731EA4A8C63ED6B117C307C8D634D639A
:1026D4002E5B125B334AB339D020B0396F4A0D5B9D
:1026E4002B5B4A5B4C634C5BC73169428A4A0732B5
:1026F400A5290732C94A2A5B2A5B4B5B6B638B6350
:10270400AB63AC6BEC6B0D740D74ED6BED6BED6B3F
:10271400ED6BED6B0E6CEE6BEE6BCD6BCD6BCD6B31
:10272400AC636B5B4B5B2A530A530A53EA52C94AA4
:10273400A94AA94A894A894A89420B5B0F7CEF73EB
:102744000C63EF7B3084CF7BB1949294718CB394FF
:1027540076AD57AD9394F17BF17B93949394B494B9
:10276400939432843284738C538C738C338C907333
:102774004F6BD17B338CF283D17B528C92944D6B13
:10278400A629073AA94AA84AAB520C5B0C5BEC5A3F
:102794002D634D634C636D6BAE736C6B6C63AD7387
:1027A4006C634B634B632A5B0E21AC18AB18CE39B8
:1027B4008E4AAB4AC629C429E52923194621C931C1
:1027C400CA31C931ED5A2E5B4E634D632F63D35A20
:1027D400364AD7625263B073706BCE524E63C731C0
:1027E4004619A60828212A3ACA31AC4A6942273A2E
:1027F400642125216A4A29420A422B422B426A4219
:10280400694246192B194F216A422C5BEA52EA525B
:102814008D636C5B2B5BCC6BAB632D740D74EC6BB9
:102824002D74CC6B0E740E74AD7B6C6B4C634C5B73
:102834000B4BE94AE84AA64AE76A30CD72ED16FE28
:1028440074ED17EEB3AC8F7BD39CF49C35A576ADB9
:1028540096B597B576B576AD31841184B49C9394CE
:1028640094943284738C528C13849494F17B8F737C
:10287400B39456AD35AD56AD16A574947494F27BED
:10288400462187296621451946212621672987295A
:10289400C831E8396A4A29428A4A6A4AAB52CB5259
:1028A4008A4AEB522C638E6B91526C292D420A3A60
:1028B400A629473A0632842144190519C51064082B
:1028C4004721A7292B5BCD6B8F6B8C63CC526F3167
:1028D400B32054312E42C84A253A473A2C5B86210C
:1028E400A408C61063004942C831EC526A42494206
:1028F40085298429EA526A4A0A3AAD528729E6317F
:10290400EA526A42A708CB10C610C9316521493A78
:10291400493A8729EB5268428842263A473A0A5391
:102924006B638C632B5B2B5B4B63AE738D6BCE6BDA
:102934008D63CD638B634A6B71C5D3E593ED93F5DA
:1029440094EDBAFEEF8BB394149D34A555AD76ADDA
:1029540076AD56AD35AD35A515A5528C1284528C85
:10296400B494528CB4947394338CD17BB073B49C70
:1029740035A5F49C15A5B49C9494B59C548C738C87
:1029840053844A42CC524942093A6A4AC831872997
:102994008729C7314521A731452125216629862963
:1029A400452124198629A6294D42AD52C731073243
:1029B400A5294421E4100719C710A7106508840845
:1029C4006629C731484289424C42CA4A8A424E2942
:1029D400741854184E290732032AC84A2B53EC5250
:1029E40087216300C408273AC731CB522A422A42BE
:1029F4006629A5290A5B894A29428C52C831E2100A
:102A04004319EB524C3AA9088808A708C831EC527C
:102A14004A3A8C4ACD52CC528A4269422C5B2C5B96
:102A24004C5B8D634C5BCB4A2B53EB52283A8A4A5E
:102A34006942283A2742F1A497EE35F656FE4AA396
:102A4400B5E5D6D5EF83928C34A555A555AD55ADD6
:102A540055AD35A535A535A535AD93943284B494DB
:102A640015A5328C9394328C906B4F6B738CD49CE1
:102A7400B39C15A5B39C528C739474949494948CC5
:102A840056A597AD559D76A5107CF494317CAB5238
:102A9400CB528A4A6A4A307C6E6BEB5AE739C731AB
:102AA400E739C731C731C6310C532C5BCA4A2419E4
:102AB400A408660848084A0849088810C6108729E7
:102AC4008729C931092168084D102921E731AB3123
:102AD400332934107210CE186D290C3A093A8A42FF
:102AE400EB4AA7290411A5212A42AB524A42E939EB
:102AF40047298729EA5AE95247426A4AE939A30829
:102B0400A5210B536F63105B1042EC3909322D5B26
:102B14006B42ED520E5B2E5B2E5B6B426B426B4243
:102B2400AC4ACB4AEC520D5B4C53693AC729493A3B
:102B34006A420319811894BD77EE56F615F60DB462
:102B440057EEB1A4AE73B28C35A555A576AD55AD8F
:102B540055AD35A535AD56AD56AD15A5528C738C16
:102B6400B4943284939411842F63F17BF5A4D49CA0
:102B7400D49C35A5D49C77B515A5F5A4F59C94945F
:102B8400B494D4946E63149DAF73928CF39C718C43
:102B940055A5B394CF73928C149D149DD294F39C39
:102BA400EB5A694ACA52AA520B532C5B6A42C93186
:102BB40026004A084D10AF18AC184A216729A729E6
:102BC40026198C312F29D0207718EE18462165213B
:102BD4008C29D2207618771896206F100819E729C7
:102BE40028324A3A093265198C4A6C4A4C4A6A2995
:102BF40009214829894A4A63684A6A424B4288291A
:102C0400AA4A89426A3AAD4A904ACE52C729C94A69
:102C14000B536E63D06B8F632E5BCD52AA292C3A73
:102C2400EA3109326721872149324932E8314A427F
:102C3400AB52252124292F9437E6D8FE36EE77F6B9
:102C4400D9F6AD83AD73D28C14A555AD76AD76AD02
:102C540055AD35AD56AD56AD56AD56AD528CD07B57
:102C64003284738C738C6F6B706BB494738CD49C40
:102C740056ADB49C528CD07BB073F183738CD59CCD
:102C840035A5D0738E6BCB52CB52AA52AA522C6369
:102C9400EF7B718CAE733084AE735084EF7B918C78
:102CA400AE736D632C632C630B5B4C5BC831C93111
:102CB400EC3948082A088B102B218929C83107329E
:102CC4002A3AAC31EE20D02017106F10471963193F
:102CD400C729AE311229B52054108F188808041161
:102CE4002419C9318729283AA94A0C42D041CD2058
:102CF400E9202521E6390B5B2A42EB398C4A6B4AE1
:102D0400293A2A3A0A322719A929E931E731A529AA
:102D14000953AD634C5B0C530C53CC4A2719C610B2
:102D2400A5080619C408830086192932E831294206
:102D34004A4A0842518CB19CD1AC73C5B4CD94CDF0
:102D440033BDCA620F84B29435A576AD96AD76AD27
:102D540035AD35A535A515A515A556ADD49CF07B87
:102D64001184728CB073AC52127CB5949494939485
:102D740032844E6BED624A4ACC5AED622E6B8F73ED
:102D8400F07BD3945184728C30846D6B4C6B4C63A8
:102D9400EB5AEA5AAA52EB5AEB5A4C63CA52AA5259
:102DA400EB5A0B5B4C6B8D730D5BEC52A6296521C2
:102DB400A629E93167218829C93146212419E4105B
:102DC400672169290919C91833106D10472144195D
:102DD40045210A3AEB390D424B212700650863006F
:102DE400A308C93167218A4286420C4252318F18A6
:102DF400C8186321A329AB524E4AEC39E939494238
:102E04004521E510C510A408E21044196621A6293D
:102E1400A94A29536B5B4C5B4D634A3A67210619F7
:102E240088290619E41082008721E831A8292A425A
:102E34004A4A8B52F7BDD6BDB5BDB4BD94BD74BD71
:102E44006D7B8A5AF083F4A455A576AD96AD76AD24
:102E540035AD35A535A515A556AD56AD36ADF183C1
:102E6400AF73F17B4E6B4E6BD594738CD4943284D8
:102E74002E63CC5A4E6B939435A556ADF49C939423
:102E8400F07B728CC739728C17BED5B5F6BDB5B55B
:102E9400D6B554A554A533A533A550843084EE7B10
:102EA4002B638D6B2F842C630D534E638621231962
:102EB400842184210632E6310311E3100411A308AE
:102EC4008308E831A72942000B0026004621872900
:102ED4006721C83122196119C429A729A5088408C2
:102EE4008729A7294B42AC4AE531EB39ED208B18F1
:102EF400A61043212219093AAD52EA39C731283ABA
:102F04002519840805190411E11005196A298F4A45
:102F14004A3A473A463A68424A3A093A6B42E931F0
:102F2400C9312A3A6A4269424A42E8398729093A48
:102F34006A4ACB5A95ADD6B5F6BDF6BDF6BD54ADCD
:102F4400CA5AEC62529436B535A576AD76AD76ADF7
:102F540056AD56AD56AD35A576AD15A556AD118415
:102F6400AF73F07B2E6311849494948CD073ED5AD8
:102F74004F6B528CD49CB49CF5A49394F49C15A5EB
:102F8400F49CB394728C728C16BEB9D698D6D9D6EA
:102F9400FADEFADEFADE7CEF7CEFBDF75CEF1BDFD6
:102FA4001BDF5CEFFBDEDADE2D5B4E63261983004C
:102FB400462165214419C6318529A20841006300D0
:102FC40083082519E831820826004300E3106721AD
:102FD4004821E510C208021103190619A929C831AC
:102FE400A62949426B426929EA396829C518A410FF
:102FF400C5180619062124214742C9526529293AD0
:10300400E939620065216521A321281990315029ED
:103014000A19E731063286296821A8290832E831DD
:103024002A3AAC4AC729473AAB4A293A87296A4A15
:103034002942AB5279CE38C6F7BD38C638BE718C3A
:103044008A524E73B49C16AD35A555A576AD35A5FB
:1030540035A576AD56AD35AD56AD35A597B593943A
:103064008F73D07BAF73B494B494D073ED5AB073B0
:103074009494F59C15A53284739411849394D49CF0
:10308400B394D39C9294528CB4B5D9DEB9D678CE8D
:103094001ADFD9DED9D67CEFBDF79DF7DEFFFEFF40
:1030A400FEFFDEF77CEFBEF76C5B4D5B09326721F8
:1030B400C610C61006192619462186294519830803
:1030C40042000619C931840824002200A30866219D
:1030D4006621C410630065088708A7100619C6296D
:1030E400273AE739672948290819E410E110E11063
:1030F400C410E71828210419A3290432073A4621E9
:103104002A424A42E7314842663A0E3A3229D220EC
:10311400CC1846194419A8292821472125198621A4
:10312400A8290A3AA30860008621C729A629AA4A21
:1031340028422C6359CE96B596B5B6B579C6D394C4
:103144002A42B073B49C16AD14A514A555AD56AD62
:1031540056AD56AD15A535A556AD35AD56AD9394C2
:10316400ED5A0D63F17BB39411846F6BB073938C40
:10317400D59C36A556AD93941184D07BD07B35A5D0
:1031840015A5F49CD39C728C73ADD9D6B9D6FADE4E
:10319400DADED9D67CEF78CE0B634C6B2F84919416
:1031A40033A517BE7CEF3CE74C5B2C5BEB4AEC4A47
:1031B4004B3A4B3A6C42C92967212619051945191E
:1031C40046190511672127192400030084084521A5
:1031D4006421C21042004500E9184929E839073A38
:1031E4008521041925196621C510C4100311031182
:1031F400A20805194721E5182419C529C5318529CF
:1032040046216B42A729452182210D3A13299218A0
:10321400AC10271945198829E71027194519652184
:103224006721CA312519A10886198621493AAA4A73
:10323400E7393084F8CD76BDF8C596B5F8BD159D4F
:103244008B42728415A536A555AD14A514A515A5F4
:1032540035A535AD35A556AD35AD36AD56AD15A54F
:10326400CC5ACC5A9394738CF17BB073938C16A57F
:1032740016A557AD36ADF5A4D07BAB52F07B14A5A3
:1032840035ADB3949394738CF6BD1ADF1ADF1AE745
:103294003BE73BE73BE7DADE8952E218442944295D
:1032A4006429853134A53BE74D5B4D5BCA4AEA4A44
:1032B4004C53AE638F634E5BED52ED526A42A729C5
:1032C400C729293ACC4A4B42CB3169296821A7291D
:1032D400A629642165218629E831A7296621451993
:1032E400462187294621A208C310C510E710C6103D
:1032F400A208E21025190719C61046216421C53118
:1033040086296829C931E518A00089297131D0209E
:10331400AA104619652167218929C5108200E41085
:103324004721482167216521A621A621AA42894275
:103334004421308CB6BD97C597BD97BD77AD159D1B
:10334400CC4A317C359D76AD96B555AD35A5F49C0A
:10335400D49CF49C15A535AD35A536A536A556AD3A
:103364008B522E63F59C3284B073528C9494D59C0A
:1033740036A516A5D59C36A5F5A429426E6BD49C1A
:1033840056AD93941184F18354ADFADE1BE73BE709
:103394005CE71BE7B9D69DF7B2942321A5318531AB
:1033A400C631E6392842DADE6E5B8E63CA42884251
:1033B4000A4B6D5B4E5B4F5B4F5B0D532C53EB4ADB
:1033C400CB4ACC4A6F6370637263716391637063B9
:1033D4002F5BCD4A6A42473AA421C6292619E61032
:1033E4002719C51022006200A408E610C608A50823
:1033F400A3088200A4080719C710E5104521652118
:10340400C831672948296829201146216D29AB1044
:10341400C81025196521C8290A3AC829A308041126
:1034240084086821672145214619493A8A42693A44
:10343400C2088D6BF7C576BD36B5B8BD77AD938C34
:103444002D535184149D75ADB7B5B7B5D7BD96B599
:1034540015A5F49CF49C56AD35A536A515A556AD19
:103464002A42B073F59C528C1184D49CB494B494C5
:103474009494F17BD17BF17BD49C6A4A294A93943E
:103484001184D07B11841284D29C5CEF1BE73CE74F
:10349400FADEDADEFADE1BE7D6BDA6314429652959
:1034A400A6318531C639AE738F636E5BEB4ACA426F
:1034B400CB4A4E5B4F5B0F53505B6F5B6D5BCA4AED
:1034C400CA424D5BD06B906371639063B163B16327
:1034D400B36BB36BD26BF06BEF6BAF630F53CE4A2E
:1034E400AD4AE92926110711C708E61083004200F6
:1034F400640024002300E5102519C410E5104621BA
:103504006629872947296929A421A7294921050072
:10351400C51045216521E83105196621C7298208AE
:10352400A408A408A8294519A8318B4A493AA62118
:103534008100AE6B38C676BD97BDD8BD97B5D07344
:10354400EC52D39434A575ADB6B555AD76AD96B5FC
:1035540076AD35A514A576AD35A556AD56AD57ADAA
:103564008B523284D59C9394728CF49CF5A4F6A46B
:1035740074943384D59CB49CB49CAF734E6BF07B31
:103584002E6B9073538C538C9194FADEFADEDADE50
:103594001BE71BE7DAD699CE1BE7EB5A8531A63138
:1035A400A5316529E739C631B0634E5BCB428A4207
:1035B400AB428F63B16371632F536F5B8F638D6312
:1035C400507CF28CD28C517CAF63905B905BB16386
:1035D400B263B263B363B263D36BD26BD26BD36B9C
:1035E400B26BD26BD26B7163515B2E53AA42093218
:1035F400A9292819E610451903198308A408C41039
:1036040024210319A7310721A729A8298721830089
:10361400E410662166212519A308C308C308872975
:10362400251987296621E831EA41E939A729C20029
:103634006000AE6BF7B5B7B5D8BDB8BDD8B5F073FB
:10364400283A308454AD74B514A5D394B394D39C60
:1036540035A576AD55AD35A535A556AD77AD77AD68
:103664004F6B9494B49CB49CB394D49C15A5F59CD2
:10367400548C548CF6A4F59CB49C528CD07B2D6352
:103684003184F59C16A5B59C3084B6B51CE71CE7BF
:103694003CE7DBDEFBDEFBDEDBDEB6B5442944299A
:1036A400A631C639A63107428F638F632C53CB42B0
:1036B400EC4A8F636F5B705B715B705B6F5BCE6BAF
:1036C40012953295D084F08C7174F16B915BB16377
:1036D400F06BD063B263D56B9463F46BD26B91637C
:1036E400D26BB2639163B163B063D063D06BD06BC0
:1036F400B16B90636E5B2C5BAA4A8B4AC831A731CD
:1037040064296429E41827292719061946218621E2
:1037140025196621A729E410C308A308051925194A
:10372400C7310832E731C729693968310519A20060
:10373400A1002B5317B638C639C697AD76A5728447
:10374400283AEF7B74B5D1A49294F49C35A5D39C0C
:1037540014A5B7B597B556AD56AD35A515A516A59F
:10376400F17BB49CB494D49C9394F5A436A5D59CD5
:10377400D59CD59CB494D59CB49CD49CEC5A0D6334
:10378400528CF17B90739073EF7BF39CDADE79CEED
:10379400D29C1084FBDE9AD6BAD6DBDE91948531B6
:1037A400A631C739E73907428F5B6F5B0D53CC42B3
:1037B400EC4AAF6390639063305B9163505B305B22
:1037C4001274F58CF594D38CF58C948470639163A6
:1037D400D26BD26BB36BB36BB36BB36BB36BD36B97
:1037E400D26BD263B263B263B263B263B163905B10
:1037F400905B8F5B6E5B6D536D538D5B8D5B8C5BF0
:103804006C534B532A4B0A4BEB4AAA42693A28326F
:10381400082AE729A621A62145196619A621A72168
:10382400A729A729A729A7218821E510A4086400AE
:1038340042006A4ABAD658C696B5D7BD35A5D49CB7
:10384400A8396E6BF49C149D55A575AD75AD55A541
:1038540055A596AD96B555AD35A535A5F4A415A5D4
:10386400939415A5D49CD49CD49CD59CF59CD59CB0
:10387400D59CD59CD59CD4949494D49C2E634E6BA7
:10388400AF73AF73CF73728C93949394F17B462987
:103894000419AB523CE7FADEDADE1ADF57C6063A01
:1038A400073A2842E73908428F638F630D53AB42CE
:1038B400CC4AB063B063906390639163B163706307
:1038C4004F5B1174158D3595F48CF48CD48CD06BBE
:1038D4007063B16BD26BF36BD36BD36BD36BD36B62
:1038E400D36BD36BD263D263B263B263B263B1639B
:1038F400915B905B6F5B4E534D534D534D534C5303
:103904004C534C534D534D536E5B6E5B6E5B8F5BF0
:103914008F5B6E5B4D530D53CC4A8B424A32092A5E
:10392400C829A82967212619A4004300430043009D
:1039340002002D63BBD634A5D7BD96B5B3941284CB
:103944008831CC5A149D55A555A575AD75AD55A5B1
:1039540055A576AD96AD96B596AD35AD15A5F49C49
:1039640015A536ADF5A4B49CD49CF5A436A536A50E
:10397400F5A4F59CD59CF59CF59CB494B0734A4A87
:103984004A4ACB5A728CF49CF17B93944E6B05217A
:1039940066298A521CE77CEF7CEF5BE7A952274239
:1039A40027420742E739E739CF63AF632D53CB4A48
:1039B400EC4AD06BB063B063D16B91639163D26B0B
:1039C40090632E53D06B35953395138D549DD38CC2
:1039D40031741174B0639063D26BD26BB26BD263E7
:1039E400B363B363B363B363D363D363D363B263C4
:1039F400915B715B505B4F534E532E534E532E537A
:103A04002D532D532D532D534E534E534E5B6F5BFD
:103A14008F5B8F5B6F5B4E5B8F5B6F5B4F5B4E5B54
:103A24004F5B2E53ED4A8C426B3A2A328821471958
:103A3400E510AF6B38C696B5D6B5B7B515A5738C7A
:103A44002A426A4AF39C54A535A575AD55A555A5DA
:103A540075AD55A535A576AD76AD76AD76B535A5FE
:103A640035A5F5A4D49CF5A436AD36AD57AD57AD08
:103A740036A5F59CD59CD59CD494B4944E6B052165
:103A84008B52118435A5518C728C738CD07BE418C5
:103A9400E42008429EF7BEF7FEFF1ADF474A474A72
:103AA40007420742A6312842CF6B8E630C4BCB42B0
:103AB400EC4A8F636F5B8F639063D26BB1639063E7
:103AC400B16B8F638F5B106C749D749D749DF7ADA7
:103AD400B284927C727C737C527433743374137426
:103AE400136CF26BD26BD26B92639263925B715BD9
:103AF400715B705B705B705B2E532E532E534E5371
:103B04004F534F532E532E534E534E534E534E53E7
:103B14004E534E5B4E5B4F5B4E532E532E530E5300
:103B24000E532E532F532F532E534F5B4F5B706303
:103B34000D537284F7B517BEF7BDB7B536A5538CD0
:103B44002A422942928C54A555A596AD96AD75ADE1
:103B540076AD35A514A555A596AD97B556AD35AD3D
:103B640035A536ADB49C15A597B576AD56AD56AD15
:103B740036A5F5A4D59CD494F59CD4942A42252149
:103B8400CC5A3184728C518C728CB394528C8731A0
:103B9400E41866299AD6BEF7DEFF99D6684A274A02
:103BA400E639C639284AE639CF6BAE630C53AB42CB
:103BB400CB4A8E5B6E5B6F5BB16390639163B16361
:103BC400B063F16BF16B8F630F741395959D96A59C
:103BD400EF6BEF6B3074317452745274527C5274C4
:103BE400727C537C537C537C54745374326CF16BED
:103BF400B063905B6F5B4E534E532D532D530D5357
:103C04002D532D532E532E532E534E534E536F5B21
:103C14008F5B8F5B6F5B6F5B6F5B6F5B4F5B2F5378
:103C24000E4B0E4B0F530F532E4BCD420E532E53B0
:103C3400AC4A517C18BED6B5F7BD96B556AD949432
:103C4400ED5A0D5B718C54A596ADD7B5D7B596AD2D
:103C540096AD76AD35A555AD56AD76B556AD35A513
:103C640015A536ADF5A456AD77B536AD15A536A573
:103C740036A515A5F59CF59CF59CB4946629A73149
:103C8400AB52F07B728C9294528C3184F49C6A4ACD
:103C9400C3184529694A79D6FFFF79D6484A474A65
:103CA400A539E6410742E641CF6BCF6B4D5BCB4A6A
:103CB400EB4AAF6BB0638F63B06370639063D16B97
:103CC400D16BB063B063F16B8F633174569DD38451
:103CD400F06B3174EF6BEF6BCF63CF63CF63EF6344
:103CE400EF6BF06B106C106C106C316C31745174A0
:103CF40051745074306C0F6CAE638D5B8D5B8D5B57
:103D04006D5B4D534C534C532E534E534F536F5B7B
:103D14006F5B4F5B4F534F534F534F5350532F537E
:103D24002F532F530F4BEE4A2E4BED4A2E530E5367
:103D34000D53317CF7B5F7B5D6B576AD15A55284DC
:103D4400CC520C5B307C75A596ADD7B596AD75ADF0
:103D540076AD76AD55AD55AD35A556AD97B5F49C5C
:103D640035A515A556ADB7B536AD36AD56AD36ADA0
:103D740015A5F59CF59CF59CB494B49405194629B5
:103D84000D63728CB3945184B394528C728C2D6BEA
:103D94008210042172949EF7BEFF1CE7284A484A09
:103DA4000742A539274AE6416E636E632D5B0C53C7
:103DB4002D53AF6B8F638F634F5BF16BD16B90634C
:103DC400D16BD1639063D063D16B90631274D06B69
:103DD4001174527C106C5174317430743074306CC2
:103DE400106C0F6CEF6BEF63EF63EF6B0F6C2F6C6A
:103DF4002F6C2F6C0E6C0E6CED63CD63ED630E6C4B
:103E04002F6C0E6CEE63CE63D063D063D063D0634B
:103E1400B063B063D063D063B063905B2F530E4B39
:103E24000E4B0F530F530E4B0D432D4B0D4B0D4BA0
:103E34002E53D06B96AD38BEB6AD76AD56A5D494A0
:103E44004F6BEC52EF7354A596AD76AD75AD75AD71
:103E540076AD76AD55AD35A576AD35A556ADB39CED
:103E640036AD56AD97B556AD36AD56AD76AD36AD2D
:103E7400F5A4D49CD49CD49C159DD4942621662965
:103E84000C5B8E73107C518C528CF07BB394AF73AB
:103E94008210E41818C6BFF79EF759CE484AA639CF
:103EA4000742684AE641E6414E5B2D532D5B8F6322
:103EB400AF6BD06B6F5BB063B1639063B163D26B74
:103EC400D163D163D26BD163B163D16BB063D16B76
:103ED400D063AF636E5BD063D063D06BF06BF06B79
:103EE400F06B106C116C116C106C106C0F6C0F6C0F
:103EF4000F6C2F6C2E6C0E6C0E6CED63CD63ED634A
:103F0400EE63CD63CD63CD63AE5BCE63EE630F6CC6
:103F14000F6C106C306C306C306C306C106CCF6388
:103F2400AF638E5B8E5B6E5B4D4B2D4B2E4B4E53B6
:103F3400ED4AD06BF7B5F7B5F7BD96ADF49C738C2D
:103F44006F6BAB52EF7B54A5B6B575AD75ADB6B519
:103F5400B7B596B555AD35A576AD56AD56ADF49C11
:103F6400F49C56AD77AD56AD56AD76AD56AD15A5B0
:103F740015A515A5F59CF49CF49CB394294209421B
:103F84008B526E6B518C11846E6B117C3184CC52CC
:103F940062086208F49CFFFFDFFF7ACEE841484ADA
:103FA400C6390642064206422D534E5B8F63B06B00
:103FB400B06BB063B06BB16BB163B163B163D16B20
:103FC400D263D263D263D263D16BD16BD16BD16B29
:103FD400D16BF16BF16BF16BD16BD163B163B163F5
:103FE400B163B163B1639163AF638F5B8E5B8E5BCF
:103FF4008E5B8E5B8D5B8D5B8D5B8D5B8D5B8D5B7B
:10400400AD63CD63CE63AE63CC5BED63ED63ED6313
:104014000E6C0E6CED63CD63EE63CD63AD5B8D5BB7
:104024008C5B8C5B8D5BAD5BAF5BAF5BD063B06374
:104034008F5B317C17B6F7B5D6B5B6B536A5B49453
:104044002E636A4ACF7375A555A596ADB6B5B6B5B8
:1040540096B596B596B576AD96AD76AD56ADD49C7F
:10406400F5A415A5D49C77AD56AD56AD56AD15A5A2
:1040740036A576ADF59CD49CF49C159D0D5BA731BB
:10408400873149420C63AF73117CB49476ADF07BF5
:10409400E8398310728CFFFF7EEF9AD6494AC739FC
:1040A400E7390642274226426F638F63B06BB06BD9
:1040B400B06BB16BB16BB1639163B163B163B16365
:1040C400B263B263B263B263D163D163D163D163C8
:1040D400D16BD16BD16BD26BD26BD26BD263B26327
:1040E400B263B263B363B363B1639163905B6F5BB9
:1040F4006F5B6F5B6E5B6E5B0C4B0C4B0C4B2C5312
:104104002C532C534D536D5BCD63CD63CD630E6C3B
:104114000F6C0F6C0F6C2F740F6CEF6BEE63CE6330
:104124008D5B6D5B6D5B6D5B6D536E538F5B8F5BF6
:104134006E5B107417B617B675A576AD35A5F59CEC
:104144003284EC5A6D6B139D75AD96B596B555AD2D
:1041540055AD96AD76AD55AD55A556AD35A5729414
:10416400328C3184728C528C528CB39C15A515A55B
:1041740036AD56ADF49CF49CB394159DAB52E41843
:10418400A731EC5A728C528C3284738C52843184F1
:104194002C63AB523184FFFF5DEFF8BD49422842E6
:1041A400284227424742474290639063706390637A
:1041B4009163B16BB16390639063B163B163B163B5
:1041C400B163B263B263B263B263B263B263B26344
:1041D400B263B26BD26BD26BB263B263B263B363DA
:1041E400B363B363B363B363B263B2639163915B69
:1041F400905B906390638F63AF636E5B4D532D53FD
:104204004D534D534D5B6D5B2D530D532D534E53F9
:104214004E5B4E5B6E5B6F5B8F63AF63B063B0638B
:10422400B0638F63B063B0630F64CF63AF63AF6396
:104234008E63EF7317B6D6B517BEF7BD35A53284B6
:10424400B073EC52AE6B139D34A5F49CF49C14A58E
:1042540035A514A5F49CD39CD49C15A5F49C728C10
:104264003284B394F59CF59CB49C93949394F49CFD
:1042740077B5B7B535A5F49C738C56A50D5B87311E
:10428400EC5A4E6B2D636E6B6F6BB073528431843A
:10429400CB522842107CFFFF5DEFD39CC731083A14
:1042A4002842274227424742B06390637063706399
:1042B4009163B163B16390639063B063B163B163BD
:1042C400B163B263B26BB26BB363B363B363B3632F
:1042D400B363B363B363B363B263B263B263B2632E
:1042E400B263B263B26392639163915B715B705B1F
:1042F400705B6F5B6F5B6F5B8F638E5B6D5B4D534E
:104304006D5B8E638E636D5B3174527C527CF17392
:10431400D06BD06BB0636F5B4E5B4F5B4F5B2E53C8
:104324000E530E530D53ED4A0B4B0C4B4D536E5B1A
:104334004D5B8E6BD6B5D6B5F39CD39C15A59394E3
:10434400F17B0D5BCF73B28C9294F39C35A555A58C
:1043540014A5D39CF49C15A514A535A535A51184E5
:104364009394F49CF59C97B597B536ADD49C73940F
:104374007394B49415A597ADB394728CB073C83983
:104384004A4AAC526E6B528C9494D49CB3944D6B49
:10439400694ACA5A895279CEDFFF728CA731084222
:1043A400284227422742474AD16BB16BB163B163BC
:1043B400B163B163B16391639063B063B063B0639D
:1043C400B163B163B26BB26BB46BB46BB46BB46B0B
:1043D400B363B363B363B363B363B363B263B2632B
:1043E400B263B163B163B16391639163905B6F5BDB
:1043F4006F5B4E5B4E5B4D534D534D534D536D5B55
:104404006D5B6D5B6D5B8E5B7184B28CD28CB28C98
:10441400B28CD38CD28CB28492849284717C517C81
:104424005074307430740F6CEE63CE638E636D5BC6
:10443400EC524C5BD6B578CEF6BD55AD76AD36A50F
:10444400B494EC5A2C63B294D39C14A535A514A54A
:1044540014A555AD76AD35A555A576AD528C3184F0
:10446400CC5A728C528CB49435A577B597B556ADA9
:10447400F59C738C9394F49C56A59394D07B462915
:10448400CC5A6F6B1184F17BD17B318492940F846D
:10449400A9522742CD731BDF9DEF30846529C639AD
:1044A400E639E6392642674AB063B163B163916382
:1044B400916391639163906390639063B063B0631D
:1044C400B063B163B163B263D36BD36BD36BD36BA0
:1044D400B36BB363B363B363B363B363B363B26321
:1044E400B263B163916391639063B06390638F63CC
:1044F4008F5B6E5B6E5B6D5B8D5B6D5B6D5B8D5B14
:104504004D5B4C53AE635174F18CD18CD18CF18CD6
:10451400D18CB084B084D18C329532953295329559
:10452400539D939D939D739D128D3395139514956F
:10453400B28C718474ADB5B595B576AD15A5B4944A
:10454400D49CEC5AAA52D29414A5D39CD39C14A5FF
:1045540076AD55AD35A535A576AD93941184939478
:1045640063082E6315A5118415A556AD57AD98B5EE
:1045740097B536A5D49C9394528C15A5AC52831050
:104584002A426F6BF17B9394949C7394D39CCA5A84
:1045940006420E84DDFF9CF7BDF7B29C44296529D1
:1045A400A631E6392642474A90639063916391634A
:1045B40091639163B163B0639063AF63AF63AF63BF
:1045C400B063B063B163B163B163D163D263D263E7
:1045D400D263B363B363B363B363B363B363B26309
:1045E40092639263915B715B6F5B6F5B6F5B6F5BFD
:1045F4006E5B4E5B4D5B6D5B6D5B6D5B4D534D5305
:104604004D5BAF63717CF48C9084707C7084B18456
:10461400B1849084B18CF29412953295339533958C
:10462400539D949D949D739D339533951395549DFB
:10463400559D54A595ADD6B5B6B5F8BD35A593949D
:104644009494EC5A8A4A139DD39CD39C35A596B571
:1046540055ADD39CF49C96B576ADF07B56AD2D63E9
:1046640083104629F49C9394328CB49C15A577B599
:10467400B8B556AD15A5B494D494F59C8B52873136
:104684000942F17B538C738C939C7294B29C895A2B
:10469400C96256CEB8D698D65BEF95B5C639C63939
:1046A4002742274A474A464AD16BD163B163B16373
:1046B400B26BB26BB16BB063B063AF63AF63AF6344
:1046C400B063B063B16BB16BB063D063D063D163DB
:1046D400D163B263B263B363B363B363B36393632A
:1046E40092639263725B725B90638F638F636F5BA1
:1046F4006E5B4E5B4D5B6D5B4D538E5B6E5B4D53E2
:104704008E63517CB38493849284928CB28CB38CE8
:10471400B38CD38CF3941495349D559D75A575A5D0
:1047240096A596A595A5759D749D749D3495349D07
:10473400F394139D34A517C617C618C6B7BD77AD35
:10474400B494AB522842D294F39C34A555AD34A50D
:10475400149D35A555AD76AD928C528C76AD6629F7
:1047640025218310AC52D8BD128473949394F59C84
:1047740036AD56AD77AD77AD938CB4944E6B672957
:104784004A4AD07B738C738C118C939C719C6C7B88
:104794004B732D8C8F94B09CD19CB19C8531E74197
:1047A400274A0642274A674A4F634F5B4F5B4F5B7A
:1047B4004F5B6F5B6F636F63B06390638F638F63F3
:1047C400B063B063D16BF16BD16BD16BF173F173E7
:1047D400F173D16BD16BD16BD26BB163D26BD163FB
:1047E40090638F5B8F5B6E5B8E5B8E5BAF638E5B68
:1047F4006D5B6D5B8D634C5B6D5B8D634C5BAE6B16
:104804009184507C917CB184918C918CB28CB28CCB
:10481400D28C139D339DD294339D749D74A595A51C
:1048240095A595A594A574A574A574A5339D3395F4
:10483400549D339D549DF7B517BED7BDB6B576AD1F
:1048440055ADEC5A8A4AB38C55A535A555A5F39CAC
:1048540014A535AD96B515A5F07BB8B5D073C410C5
:1048640026192619E410159D76AD117C738C528C93
:10487400738CF59C15A577AD36ADB494D07BC8394F
:10488400AC521184528C738CD494728CD1A4EC8B62
:10489400CEB44FC58CACEB9BCC930E94EB62C7416A
:1048A400E74107420642A431B06BB06B906390635A
:1048B40070636F636F636F636F636F636F5B4F5B93
:1048C4004F5B6F5B6F5B6F5B9063906B9063B06BE0
:1048D4001274B06B3374F26B137413741374127414
:1048E400F16BD16BD063AF63AF638E5B8E5B8E6312
:1048F4008E5B6D5B6D5B6D636D5B2B53AD63707C29
:10490400D28C707CB184B184B28CB18CB28CD28CD8
:10491400F394339D549D339D1395339D339D549D42
:1049240074A594A574A5549D549D749D349D33958C
:10493400549D339D549DD6B538BEB6B555ADF39C44
:10494400F49C0C5B4A42159D55A534A514A5D39C33
:1049540055ADB7BD76AD528CF49CB8B56B4AE51035
:1049640026212619C410EC5AD8B5B394938CB39469
:10497400B494738C9394D49C56AD36A593948B5273
:104984000D63728CB494D49C938CF4A4B19C6E9CEF
:1049940054E68DAC07834DA46EA4EE8B2852863169
:1049A400C739C639C539C439906390639063B0631D
:1049B400B06BB06BD16BD16BD16BD06BD06BD06B58
:1049C400D06BD06BD06BD06B9063B063906390630B
:1049D4004F5B4F5B4F5B7063705B705B9063906386
:1049E400705B6F5B4E532D53AF638E5BAE63EF6BA7
:1049F400EF6BCF6BCF6BEF73CE6B0F749184507CE6
:104A04000F74707CF28CF28CF294D294D28CF29467
:104A1400139513951395539D74A574A574A594A526
:104A2400B5A5B5A595A594A5549D74A5549D549D6F
:104A3400549D339D549DD6B558C6F7BD96B555AD16
:104A440055AD6E6B083A149D55A5149D34A555AD0E
:104A540096B576B514A5728C97B5F59CE51826190C
:104A6400262126210519252135A556A5938CF49CCC
:104A7400F59C9394738C7394F5A436A515A5D07BFB
:104A8400AF739394B394B394938C92942F8C2D948A
:104A9400B2CD2C9CCA9310BD2D94CD836531653164
:104AA40007422742E641C5394F5B4F5B4F5B4F5B83
:104AB4004F5B4F5B4F5B4F5B2E534E5B4E5B4F5BCD
:104AC4006F5B6F5B6F5B6F5B6F5BB06B90634F5B38
:104AD400D16B6B3AD16B4F5BD16BF26BD26BD16BF9
:104AE400B063B0636E5B2D534D5B4D534D536D5BA3
:104AF400AE63EF6B307C7184507C507C7084707C2E
:104B04009184B184918413951395339D339D339D82
:104B1400549D549D749DB5A5749D549D549D749D40
:104B2400B5A5B5A5B5A595A5749D94A5749D749DCD
:104B3400749D749D74A5B5AD17BE96B575AD55AD90
:104B440076ADAF73CB5255A555A534A575ADB6B5A5
:104B540096B514A5F49C15A597B56F6BA4084621CA
:104B6400262126194621C4104D6397ADB394D49CD5
:104B7400F59CF59CD49C93949394D49C15A5B494DF
:104B84003184728C528C728C938C9294919CB0A4CC
:104B94004E9CAB8B10B5AFA4ED8BB19CA539A6315F
:104BA400C639E639C539A539B06BB063B063B063B3
:104BB40090638F638F636F5B6F5B6F5B6F5B6F5B28
:104BC4006F5B6F5B6F5B6F5B4F5B2E532F5BEE52C4
:104BD4006F630E5370634F5BEE4A0F530F532F53A3
:104BE4002E5390638F5B6E5B4D5B8E5BAE63EF6B9E
:104BF400507C3074EF6BEF737084507C918491849B
:104C0400B18491847084F28CF394349D349D3395F3
:104C1400549D549D749D94A5749D549D549D749D60
:104C240095A595A594A5749D539D539D539D539D02
:104C3400749D749D539D549D38C6F7BD96B596B525
:104C440076ADAF738E6BF49C75AD95ADB6B5B6B558
:104C540075B555AD35AD56AD76ADE9390519262195
:104C64002621462125210519872996ADF49CF49C1B
:104C7400F49C35A5B394B394B494B494D49CF49CA8
:104C8400528C738C738C9394928C718C708C885A24
:104C9400875AAFA42D94A862E96290948531C639ED
:104CA4006429442943294429B063B063B063B063E1
:104CB400B063B063B063B063D063B063B063B06338
:104CC400B063B063D063D063D16BB16BB06B4F5B37
:104CD4003274ED4A1274705BB163B163705B705BE4
:104CE4000E5390638F5B6E5B8E636D5B4D5B6D5B90
:104CF400CF6B0F74307C91849184507C9184B18407
:104D0400507CF294339DF294F394349D549D549DBD
:104D1400549D549D749D749D949D749D549D749D47
:104D2400949D749D749D5495539D539533955395BB
:104D3400739D749D549D139DF6B538C6D6BDB6B506
:104D440096B53084D39435A575ADB6B5B6B5D7BD93
:104D540096B555AD55ADB7B5B39405196721261968
:104D64004621672905192621E418D49476AD35A582
:104D740035A515A5B394F49CB394D49C9394B4949E
:104D8400728C9394B494738C718C3084C63985314D
:104D9400A539064AEA6A2B6B6C73AD73442107424A
:104DA400073AE639C639C639D063AF63AF63AF6338
:104DB400AF638F638F638F638F638F638F63B0631E
:104DC400B063B063B063D0639063B063D16BD16BF5
:104DD400B06390639063B16BD26BB1639163B16361
:104DE400ED4A8F5BAF634E538E638E63EB4A283A72
:104DF400693AAA4ACA4AEA52CA526942A94AAD6BF6
:104E0400AD6B0F742F7CCE6BAD63AD63EE6B0F7423
:104E14000E740F742F742F74707C50745074707CE3
:104E2400907C907C907C917C907C907C907C907C1D
:104E3400B084D184B184708495AD79CED6BD55AD9E
:104E440034A5718C34A575AD96ADB6B5B6B5F7BDC0
:104E5400B6B575AD56AD18BE2D63E518462146218D
:104E64004621872946214621E418CF73D7B555A595
:104E740076AD35A5149D15A5B394D49C9394D49C78
:104E8400939493949394528C139D6D6B2421A6391F
:104E94000742E741EB622F8CD29CA9524421C631D0
:104EA400E639E7390742E741AF63AF63AF63AF6306
:104EB400AF63AF63AF63B063AF63B063B0638F637B
:104EC400B063B063B063B0639063B0639063D16B5D
:104ED400B063B0639063B163B1639163B163D16351
:104EE400ED4A6F5B6F5BEC4A4D5BAE63AA422419DB
:104EF4004419283A483A073268428D630F742F7C6C
:104F0400AD6BEE73507C5084CE6BAD63CE63EE6BB1
:104F1400AD638C5B8D5B8D5B8D5B6C5B4C534C53D9
:104F24002B532B532B4B2B4BEA4AEA4A0A4B0A4B83
:104F34000A4B4B534B5BEA52508417BEB6B555AD82
:104F440075AD14A596B5B6B5B6B5F7BDD6B5B6B5B7
:104F5400B6B5D7BDB6B5D7BD093A46214621A8296D
:104F640046214621662967290419CB52F8BD35A587
:104F740076AD35A576AD15A5F4A4F49C9394D49C94
:104F8400D49C728C9394738CD294694A6529A6310B
:104F9400494A6A52EB5AF39CD2948529E631273A5E
:104FA400E639A531A6396531AF63AF63AF63AF634B
:104FB400AF63AF63AF63AF638F638F638F638F63DD
:104FC4008F638F63B063B063906390639063906307
:104FD40090639063906390639063B1639063906314
:104FE400ED4A8F5B6F5B0C4B6D5BAE63493A04110A
:104FF4006519483A483A483A6C6350840F74507CB7
:10500400708471847184B28C91848D5B2B53EE6BAC
:10501400AD638C5B8D5B6C5B4C534C530B4BEA4A1E
:10502400CA42C942CA42CA42A942A942C942C94261
:10503400EA4A0B534B5B6C5BEE7317BE17BED7BDCE
:1050440034A575ADF7BDD7BD17BEF7BD38C6F7BDDE
:10505400F7BDD7BD18BEF49C051967216721462109
:10506400672167218729662925216A42B7B534A5B6
:1050740076AD149D35A535ADF49CD39C14A5D49C74
:10508400F49C528C738C528CD294484AA631A6312B
:10509400F07B2D63CB528E6BC7318529073A852966
:1050A400A53165294429A631AF63AF63AF638F632C
:1050B4008F638F63AF63AF63AF638F638F638F63FC
:1050C4008F638F638F638F6390639063B063B06308
:1050D400B063B063906390639063B16390639063D3
:1050E400ED4A8F5B6E5B0C4B8E630C53CE6B307C46
:1050F400693AEB52B28CD28CF294F294549DF294AD
:105104009184339D91849184B1842F744C5B2B538F
:105114008D638D5B4C5B4B53CA42CA42A942A94280
:10512400CA42AA42893A893AA942A942C942C94211
:10513400C942EA4A0B532B5B4C6375AD38C696B52E
:1051440055AD96B5D6BD17BE17BE38C617C6F7BD42
:10515400F7BDF7BD18C6107C0519872167216721A3
:1051640067216729872966290419E839B7B535A560
:1051740055AD55AD35A575AD76AD14A514A5D39C27
:10518400D49C9394728C738C91942742C739A73121
:105194006A4AE83949424D63AA5203196529A5317F
:1051A40064294429E7398531AF63AF63AF638E6304
:1051B4008F638F638F638F638F638F638F638F635B
:1051C4008F638F638F638F63906390639063B06327
:1051D400B063906390639063906390639063906313
:1051E400ED4A8E5B6E5B0C4B8E638E632C5396A5DF
:1051F400283AE731349DF7B51395549D139D918456
:10520400B28CEF736C63EF730F742F74CE6B0B530C
:105214004C5BEB4A8942483AA94289424832E62922
:10522400C629E7292832AA42683A69428942894252
:105234008942A942CA42CA4A4842307C38C675AD3E
:1052440096B5F7BDD7BD38C617C658C617BEF7BD45
:1052540017C618C638C60C5B0519872987298729FC
:1052640087296729872966294521A73197B555A537
:1052740055A596B514A555AD96B534A514A5D39CDE
:10528400F49CD39C9394D49CCE734421C631E739C7
:10529400694A083A8A4AF07BC7314521852965293C
:1052A40065298529C63944298E638E638E638E638E
:1052B4008F638F638F638F638F638F638F5B8F5B6A
:1052C4008F5B8F638F638F63906390638F638F6350
:1052D4008F638F639063906390639063905B8F5B45
:1052E400EC4A6E5B6E5B0C4B2C53AE6328324D5B09
:1052F400693A8521852189428942507CD6AD349D05
:105304000F740732EB52AE6BCE6BAE6BAD63CA4A11
:10531400683A483A483A2832C629483A483A08325C
:105324000732E7290832693A694289428942AA4226
:10533400AA42AA428A42AA42283A4D6359C6B6B53D
:10534400B6B518C617BE38C617BE58CEF7BD37C691
:1053540037C618C638C64942251987298729872997
:1053640087296729872966296629662935A556ADBF
:1053740035A5B6B534A555AD75AD35A534A5F39CA5
:10538400F49CF49C9294D49C0B5BE739A6298A4A3A
:105394003084EB52107CAE7304196529452924210D
:1053A400A63124212429A6318E638E638E638E63F5
:1053B4008E638F638F638F638F638F638F638F635A
:1053C4008F638F638F638F5B8F5B8F5B8F638F6361
:1053D4008F638F638F5B8F5B8F5B90638F5B8F5B60
:1053E400CC4A6E5B6E5B0C4B6D5B6D5B0C53AA42DF
:1053F400E731A6210732483A4842AE6B549DD29415
:10540400F394507C0F74AE6B8E636D634C5BCA4A2D
:10541400483A89426942693A2832693A693A493ACA
:10542400493A693A493A283A493A493A293A2832AA
:105434002832283228320832083A293A96ADB6B5CD
:10544400B6B558C658C658C637C658C617BE58C685
:1054540037C617C618BEE8394521A72987298729E1
:10546400872987298729662946214521B39455A58B
:1054740035A576AD55AD34A575AD55AD55AD14A571
:10548400F49CF49C9294B394E7398529A631442181
:1054940068426842AE73AE7304192421252965312C
:1054A400C639A631C639C5398E638E638E638E6361
:1054B4008E638E638F638F638F638F638E5B8F5B6B
:1054C4008F5B8F5B8F5B8F5B8F5B8F5B8F5B8F5B88
:1054D4008F5B8F5B8F5B8F5B8F5B8F5B6F5B6F5BB8
:1054E400CC4A6E5B6E5B0B4B4D5B6D5B0C536D5B23
:1054F4002832A621C6298A4269427184139591846F
:10550400EF732C5BAA4A0C538A4A2C5B2C5BCB4A64
:10551400AA4AAA4A0832283A283A083208320832F3
:105524002832493A493A493A083AE831E729C72939
:10553400C729E729E729E7290832A729F39459C697
:10554400F7BD58C658C637BE38C637C637C658CE54
:1055540037C618C6D6B5A7318629C829A729A729C9
:10556400A72987298729672966294621728C55A589
:1055740035A535A575AD14A555AD55AD55AD34A5B9
:10558400149DF39CD39C518CC731C739E639E73954
:1055940064292321273AE7398210C31805210429F5
:1055A4004529A639E639C5318E638E638E638E63D1
:1055B4008E638E638F638F638E638E638E5B8E5B6D
:1055C4006E5B6E5B8E5B8E5B8F5B8F5B8F5B8F5BCB
:1055D4008F5B8F5B8F5B8F5B6F5B8F5B6F5B6E5BD8
:1055E400CC426E5B6D5B0B4B6E5B2C53AE63928453
:1055F400693A283A283AEF732C5B6D63CE6B0F74CB
:105604008E63EB52AA4A8A42AA4AAA4ACB4A8A42DF
:105614006A426942E8316942AA4A08320832293AA0
:10562400C7294519E410C3088308A308A308A300E5
:10563400A300A300C308C308A30882082D6338C6C7
:1056440018BE79C658C658C638C6F7BD58C638C637
:1056540038C658C675AD6629A729C8298729872958
:10566400872987298729662966294621728C56ADA0
:1056740035A5F49C54A514A534A534A534A534A5A6
:1056840034A5F49C14A5EF7B494AE739C639E631C1
:10569400A531E531842965294529252905292529A7
:1056A40086316531C6394B6B6E636E638E638E6370
:1056B4008E638E638F638F638E638E638E636E5B84
:1056C4006E5B6E5B6E5B6E5B8F5B8F5B8F5B8F5B0A
:1056D4008F5B8F5B8F5B8F5B6F5B8F5B6F5B6E5BD7
:1056E400CC426D5B6D5B0B4B4D5B6D5B2C53AE63C2
:1056F400EB4A2832EB520C53AA4AE73169420311B0
:10570400A629A62924196942283AC3102419652117
:1057140065214519451965216E63C729E4100411F3
:10572400E310C30804194519E4100519461966194C
:10573400461925112511251925192519EB5279CE5C
:1057440038C638C617BE58C638C6D6B558C637C6C2
:1057540038C699CE55A54521A729C829872167218F
:10576400872987296729662946210519928C55A519
:1057740035A5F39C34A534A534A534A534A534A5A6
:1057840055AD149D14A54D6BC7310C63684AC531E2
:10579400063AC531C5316429663146314631252979
:1057A40066318531C5396B6B6E5B8F636E5B8F635E
:1057B4008E5B8E5B8D5BAD5BCC5BEC5BAB5BAC5BA8
:1057C4008D5B4D5B8F6370638E5B8E5B8E5B8E5BDC
:1057D4008E5B8E5B8E5B8E5B6E5B8E5B6D5B6D5BDF
:1057E400CB424D536D5BEC4A6C4B8E63093AE5102A
:1057F400A942C94A6631094A2A4A283AA94AE639D5
:105804000419051182002732E82941006200E408E6
:105814000511461987216621CB4A6621451966215F
:10582400A729C8314621662166214619251925195B
:10583400451925110411E310C2086D630F74749D9A
:10584400B9C6DACEB9CE78BE36C616C695B596B503
:1058540039C63AC635A52521862986298621662199
:10586400662167214821271965210319708C73ADBE
:1058740012A5F19CF29C139D54A5F2AC32B573BDF4
:1058840012B554ADD29486210519C831EF7B4B6B08
:10589400E541A3394331A539863104198721872984
:1058A4000519A631442902214D5B6E5B6E5B8E6344
:1058B4006E63AF6B8E636E636E5B4D5B6E5B6E5B34
:1058C400AF638F636F634E638E5B8E5B8E5B8E5BA9
:1058D4008E5B8E5B8E5B8E5B6E5B8E5B6D5B6D5BDE
:1058E400CB424D534D53EB4A4C4B8F634A42493A9A
:1058F4000B4B683A8A52D083EC62283AF2944C6398
:105904006208A30804118521493A0D53EC52461943
:10591400E410251966194519AB4A8A42EC520C5316
:10592400AB4A293AA729C7290832E831E831283295
:10593400493A493A493A493A6942AA4AAA4A2B5B3E
:10594400CE6B507C539D17B657C699CE38C638C611
:10595400F8C519C615A5C3104621251925194619D8
:105964002619E510E61827212619E410718C34A5B0
:10597400F29CD29CF29C75AD75B533B5B0AC2D9C40
:105984004E9C4F94E641E63908328A4A4C63AD7B1B
:1059940032AD6752E541C63985312842C73186297F
:1059A400083AE739C639E639AE6B4C636D6B4B6325
:1059B4004B6B2A636C6B4D6B6E6B4F6B706B4F63F1
:1059C4004F632D5B4D5B8E638E5B8E5B8E5B8E5B5C
:1059D4008E5B8E5B6E5B6E5B6E5B6E5B6D5B6D5B3D
:1059E400CB424D534D53CB4A6D4B4E5B4A4ACB523F
:1059F4003074894234AD5AD64E6B0B53D28C0C633F
:105A04004621C72945198942CB4AF0732D5B2519D4
:105A1400C408E410241125198A42493A493ACB4A68
:105A24002D5B2D5B4D5B8E6B8E636E5B4D5B4D5BB7
:105A34002D5B0C53EB52EB52CA4ACA4A4C5B4C5B8B
:105A4400EA52A94A6842EA4A0F74139575ADB6B58D
:105A540018C659CE318CE418251946192619E510B3
:105A6400051126212621E52007192721159DB39C20
:105A7400B39C55ADB29C7194B2A4D1AC8B8BAFBC2A
:105A840010C52D9CC441C541EF73D394CF73895283
:105A940091940F84CA5A474A853185318531E63954
:105AA4004842484A0742A5392D634C63ED8391B5BA
:105AB400D0C5AEBDAFBDB0BDF3C5B09C2C6B0D63FE
:105AC4004E636E636D5B6D5B6E5B8E5B8E5B8E5B3C
